:020000040800F2
:100000000010002051180008D5150008DB15000865
:1000100000000000000000000000000000000000E0
:10002000000000000000000000000000E1150008D2
:100030000000000000000000EB150008F5150008A6
:10004000A118000800000000A1180008A11800086D
:10005000A1180008A1180008A1180008031600083C
:1000600000000000A1180008A1180008A11800084D
:10007000A1180008A1180008A1180008000000003D
:10008000A11800080000000000000000A1180008EE
:1000900000000000A118000815160008A1180008AB
:1000A00000000000A118000800000000A1180008CE
:1000B0000000000000000000000000000000000040
:1000C00010B5064C2378002B07D1054B002B02D02E
:1000D000044800E000BF0123237010BD1C00002075
:1000E0000000000050360008044B10B5002B03D070
:1000F0000349044800E000BF10BDC04600000000F6
:100100002000002050360008002243088B4274D3A0
:1001100003098B425FD3030A8B4244D3030B8B4208
:1001200028D3030C8B420DD3FF22090212BA030C11
:100130008B4202D31212090265D0030B8B4219D3F2
:1001400000E0090AC30B8B4201D3CB03C01A524112
:10015000830B8B4201D38B03C01A5241430B8B425A
:1001600001D34B03C01A5241030B8B4201D30B0343
:10017000C01A5241C30A8B4201D3CB02C01A52416A
:10018000830A8B4201D38B02C01A5241430A8B422D
:1001900001D34B02C01A5241030A8B4201D30B0216
:1001A000C01A5241CDD2C3098B4201D3CB01C01A30
:1001B000524183098B4201D38B01C01A524143093A
:1001C0008B4201D34B01C01A524103098B4201D328
:1001D0000B01C01A5241C3088B4201D3CB00C01A95
:1001E000524183088B4201D38B00C01A524143080D
:1001F0008B4201D34B00C01A5241411A00D2014632
:10020000524110467047FFE701B5002000F006F8A4
:1002100002BDC0460029F7D076E770477047C04658
:10022000844608006146FFE71FB500F059FB00282F
:1002300001D40021C8421FBD10B500F0E5FA4042CC
:10024000013010BD10B500F04BFB002801DB002091
:1002500010BD012010BDC04610B500F041FB0028C4
:1002600001DD002010BD012010BDC04610B500F01A
:10027000F1FA002801DC002010BD012010BDC046AD
:1002800010B500F0E7FA002801DA002010BD0120C7
:1002900010BDC046F8B54746CE464A024302450067
:1002A000C40F500A804648005B0A000E920994462B
:1002B00080B51E00814602002D0EDF00C90F8C4262
:1002C00024D0281A00280EDD002A3ED16246002ADA
:1002D00000D1FDE0421E012800D137E1FF2800D106
:1002E000A9E0100039E0002863D04B46521B002DD6
:1002F00000D0E0E0002F00D1CEE0531E012A00D153
:1003000055E1FF2A00D194E01A00D9E02A1A002A08
:1003100000DC99E0002862D0FF2D00D18BE0802323
:100320006146DB0419438C461B2A00DCD2E0012322
:10033000DB195A016AD50135FF2D5BD00122A34993
:100340001A405B080B4013431CE0FF2D00D172E004
:1003500080236246DB041A4394461B2800DC90E0AD
:100360000123FB1A5A0151D59B019E09300000F070
:1003700091FC330005388340854200DC75E0944AE7
:100380002D1A13405A0704D00F221A40042A00D015
:1003900004335A013CD5681CFE2D2BD09B015E0A0C
:1003A000C0B2C0053043E4072043C0BCB946B046E4
:1003B000F8BDFE206A1C104272D1002D00D0AEE0C4
:1003C000002F00D1ECE063460020002BE9D0FB1A9F
:1003D0005A0100D4F3E063460C00DB1BD2E7614610
:1003E00000295BD0511E012A00D1A7E0FF2A22D0AC
:1003F0000A0099E7FF200026D3E7FE216A1C11427C
:1004000073D0FF2AF6D0150067447B085A07BBD18A
:10041000DB08FF2D0FD05B025E0AE8B2C1E762463F
:10042000002A08D08022D203134204D04046104252
:1004300001D10C004346002BDCD08026F6031E437E
:100440007602FF20760AACE7002AD6D0421B002DA8
:100450005CD0FF28EED08023DB041F431B2A00DC86
:1004600082E001234D46634463E72022401B0130B4
:10047000121A19009340C1405A1E934100250B43A4
:1004800080E7202361461B1A994062460B00C24058
:10049000591E8B41134364E70C0043461500B8E72F
:1004A0006346FE1A730145D4002E00D05EE7002497
:1004B0000020002675E7FF2BBBD08023DB041F4301
:1004C0001B2A47DD012362460C004D46D31A49E73B
:1004D00005009EE761462023D1409B1A62469A4060
:1004E00013005A1E93410B4322E7002D46D1002FE3
:1004F00062D063460020002B00D152E73B006344EA
:100500005A0183D5324A013513407FE7002FC4D00A
:10051000531E012A12D0FF2A8CD01A009EE7002F0A
:1005200000D07CE76346002B83D180260024FF2087
:10053000F60336E763460C00DE1B17E73B00634417
:1005400001255A0100D461E70225F7E6634601253B
:10055000FB1A07E720239B1A38009F403B00D0403E
:100560005A1E93410343AEE720239B1A39009F4054
:100570003B00D1405A1E93410B4373E7002F00D13B
:1005800058E76246002A00D155E78022D203134281
:1005900000D150E74146114200D04CE743464AE7BC
:1005A0006346002B83D00C0046460020F9E66346E4
:1005B0000C00DB1B0135D5E646460020F1E6002B9A
:1005C00000D023E700240026EBE6C046FFFFFF7DB6
:1005D000FFFFFFFBF0B54F464646D6464502C0B585
:1005E00047000C1C6D0A3F0EC60F002F00D16FE0B4
:1005F000FF2F00D174E00023802299469A46ED0037
:10060000D20415437F3F63025B0A984663001B0ECA
:10061000E40F002B4DD0FF2B45D042468021D20065
:10062000C9041143884600227F3B3100FF1A4B4624
:100630006140C9B20F2B00D9B8E070489B00C35885
:100640009F46002398462600454692465346022B75
:1006500000D18DE0032B00D1A1E0012B18D03B008D
:100660007F33002B6DDD6A0704D00F222A40042A55
:1006700000D004352A0103D5614B1D403B00803377
:10068000FE2B00DD74E0AA01520AD8B202E00E008F
:1006900000200022C005F60710433043E0BCBA46F4
:1006A000B146A846F0BD4346002B3FD10222FF3F92
:1006B00003E04346002B2DD1012231004B4661401F
:1006C000C9B213430F2B38D84E489B00C3589F46DE
:1006D000002D13D104239946033B00279A4692E745
:1006E000002D05D108239946063BFF279A468AE745
:1006F0000C239946093BFF279A4684E7280000F01F
:10070000C9FA7627431F9D4000237F4299469A46A7
:100710003F1A78E7404600F0BDFA4246431F9A4030
:1007200076235B4290461B1A00227EE703234A464B
:100730001A439146FC33032277E70E00FF20002284
:10074000A8E70122D31A1B2BA2DC9E372A00BD404A
:10075000DA406B1E9D4115436A0704D00F222A40E0
:10076000042A00D004356A0144D50120002291E713
:10077000FF2000228EE780220026FF20D20389E797
:10078000002398468022D203154208D043461342E4
:1007900005D11A4352022600FF20520A7AE780222E
:1007A000D2032A435202FF20520A73E742466B01EA
:1007B0005501AB421AD21B200022013F01261C002A
:1007C00052005B00002C01DB9D4201D85B1B3243D1
:1007D00001380028F3D1581E834113431D003B000C
:1007E0007F330E00002B00DD3DE7AAE71A2001222F
:1007F0005B1BE3E7AA010020520A4BE768360008BA
:10080000FFFFFFF7A836000870B5420045024E0210
:100810004C00C30F6D0A0120120E760A240EC90F78
:10082000FF2A06D0FF2C03D0A24201D1B54206D048
:1008300070BD002DFCD1FF2CFAD1002EF8D18B42D7
:1008400006D00120002AF3D12800431E9841EFE78B
:100850000020EDE770B5420045024E024C00C30F88
:100860006D0A120E760A240EC80FFF2A1BD0FF2C29
:100870000ED0002A1BD1002C01D1002E1CD0002D3F
:100880000CD083421CD00221581E0840013870BD94
:10089000002E22D1002AF4D1002DF2D10028F6D169
:1008A00001204042F3E7002D17D1FF2CF0D0002C9F
:1008B000E7D1002EE5D1E6E70020002DE7D0E2E702
:1008C000A24205DCEADBB54202D8E7D30020DEE72E
:1008D0004342584140000138D9E702204042D6E760
:1008E00070B5420045024E024C00C30F6D0A120E55
:1008F000760A240EC80FFF2A0BD0FF2C0DD0002A39
:100900001FD1002C16D1002E14D10020002D10D0A4
:1009100009E0002D0CD1FF2C13D1002E08D1002AA4
:1009200008D0834212D00221581E0840013800E04E
:10093000022070BD002DF4D10028FAD101204042E0
:10094000F7E7002CEDD1002EEBD1ECE7A24205DC5D
:10095000F2DBB54202D8EFD30020EAE74342584128
:1009600040000138E5E7C04643025B0AF0B54F4658
:1009700046469946D646C30F45009846C0B54B46F5
:100980000F1C2D0E00D1CBE0FF2D00D1CFE0802237
:10099000DB00D2041A430023914600269A467F3D8D
:1009A0007C027B00640A1B0EFF0F002B00D1A9E024
:1009B000FF2B11D08022E400D204144342467F3B37
:1009C0005B197A400020D2B25D1C0A2E13DD3A007A
:1009D0000B2E47D047463FE02B00FF33002C1ED1A3
:1009E00002221643424601357A40D2B2FF350A2E22
:1009F00000DDE4E00220022E1CDC013E012E42D884
:100A000002283DD0012866D100200021C0050843FE
:100A1000D2071043E0BCBA46B146A846F0BD032257
:100A20001643424601357A40D2B2FF350A2E00DD28
:100A3000E4E003200121B140A626F60031420AD1AC
:100A40009026B600314216D1B93EFF3E0E421AD072
:100A5000A146824600E0170053463A00022B0FD011
:100A60004C4650460328CDD18021C9032143490279
:100A7000FF20490ACAE780210022FF20C903C5E7F9
:100A8000FF200021C2E7200C49462404240C270043
:100A90000E0C0904090C74434F4346434843390C78
:100AA000001909188C4203D980204002844666440C
:100AB0003F0408043F0CC0198401671EBC41090CA7
:100AC000800E8919044389010C43090171D5012362
:100AD00061081C400C432B007F33002B51DD610764
:100AE00004D00F212140042900D00434210103D572
:100AF000434B1C402B008033FE2BC1DCA101490A73
:100B0000D8B283E7002C2CD1012342461E432B0090
:100B10007A400120D2B25D1C0A2E00DD57E76AE759
:100B2000002B10D10123042600259A4638E7002B1C
:100B300004D102230826FF259A4631E703230C2619
:100B4000FF259A462CE7484600F0A4F84A46431F82
:100B500076259A4000236D42914600269A462D1A2A
:100B60001EE7200000F096F84246431F9C402B1AD7
:100B7000763B7A400020D2B25D1C0A2E00DD26E7CB
:100B800039E70121CB1A1B2B00DD3DE79E35210003
:100B9000AC40D940631E9C4121434B0704D00F2336
:100BA0000B40042B00D004314B0104D5012000215F
:100BB0002CE71D008FE789010020490A26E7022360
:100BC0000F2E0CD180214B46C9030B420DD00C4295
:100BD0000BD1214349023A00FF20490A16E70B2EA8
:100BE00000D0F7E6A1469A4636E780214B46C90376
:100BF000194349024246FF20490A07E70323DFE77A
:100C0000FFFFFFF770B5041E0ED000F043F89E23DF
:100C100001001B1A962B0CDC08282CD008398C40BC
:100C20006402640AD8B201E000200024C005204319
:100C300070BD992B0ADD020020001B32904002009B
:100C4000501E82410520401AC4401443052916DC79
:100C500022000F480240650709D00F252C40042CC4
:100C600005D00432540102D59F2302405B1A920141
:100C7000540AD8B2DAE764029620640AD6E74A1F1B
:100C800094402200024802406507F0D0E5E7C046E4
:100C9000FFFFFFFB1C2101231B04984201D3000C22
:100CA00010391B0A984201D3000A08391B099842DF
:100CB00001D30009043902A2105C40187047C046F5
:100CC0000403020201010101000000000000000015
:100CD00090B589B000AF0C243B19180014231A00FA
:100CE000002102F089FC514B5A69504B8021C90305
:100CF0000A435A614D4B5A698023DB031340BB60A2
:100D0000BB684A4B5A69494B802189020A435A61A0
:100D1000464B5A6980239B0213407B607B68434BA0
:100D20005A69424B8021C9020A435A613F4B5A69B2
:100D30008023DB0213403B603B683D4B00220321D4
:100D4000180001F07EF89023DB05002245211800F1
:100D500001F077F8374B00220221180001F071F8FA
:100D60003B1903221A603B1901225A603B190022E9
:100D70009A603B190022DA603B192D4A19001000D5
:100D800000F0D2FE3B1945221A603B1901225A603D
:100D90003B1900229A603B190022DA603A1990232D
:100DA000DB051100180000F0BFFE3B1908221A6095
:100DB0003B1900225A603B1901229A603A1990238C
:100DC000DB051100180000F0AFFE3B1980221A600D
:100DD0003B19882252035A603B1900229A603A1943
:100DE0009023DB051100180000F09EFE21007B1807
:100DF00002221A607B1801225A607B1800229A6036
:100E00007B180022DA607B180A4A1900100000F0F3
:100E10008BFE00220021072000F054FE072000F086
:100E200066FEC046BD4609B090BDC04600100240F7
:100E3000001400480004004890B589B000AF786005
:100E40000A00BB1C1A800C243B19180014231A003A
:100E5000002102F0D1FBBB1C1A883B191A603B1918
:100E600001225A603B190022DA603A197B681100AE
:100E7000180000F059FEC046BD4609B090BD90B5BF
:100E800089B000AF78600A00BB1C1A800C243B19A3
:100E9000180014231A00002102F0AEFBBB1C1A88B4
:100EA0003B191A603B1900225A603B1901229A60D3
:100EB0003A197B681100180000F036FEC046BD46A6
:100EC00009B090BD80B582B000AF0200BB1D1A8092
:100ED000084B1B6800225A62C046064B1B685A6AC0
:100EE000BB1D1B889A42F8D3C046C046BD4602B01F
:100EF00080BDC0465C00002080B582B000AFFB1D05
:100F000000221A709023DB0504211800FFF794FFDC
:100F10009023DB0500220421180000F092FFF0234B
:100F20005B001800FFF7CEFF9023DB0504211800BB
:100F3000FFF7A5FF5020FFF7C5FF9023DB05042135
:100F4000180000F061FF031E03D1FB1D01221A707F
:100F500002E0FB1DFF221A70C8235B001800FFF798
:100F6000B1FFFB1D1B781800BD4602B080BD80B5E7
:100F700084B000AF0200FB1D1A709023DB05042132
:100F80001800FFF759FF0023FB603AE0FB1D1A78B9
:100F9000FB681A4113000122134019D09023DB058E
:100FA00004211800FFF748FF9023DB0500220421ED
:100FB000180000F046FF0120FFF784FF9023DB05B7
:100FC00004211800FFF75BFF3220FFF77BFF15E0DD
:100FD0009023DB0504211800FFF72EFF9023DB058B
:100FE00000220421180000F02CFF3220FFF76AFFD6
:100FF0009023DB0504211800FFF741FFFB68013354
:10100000FB60FB68072BC1DDC046C046BD4604B08F
:1010100080BD80B582B000AFFB1D00221A70902306
:10102000DB0504211800FFF72AFF00233B6032E0B4
:101030009023DB0504211800FFF7FEFE9023DB055B
:1010400000220421180000F0FCFE0120FFF73AFF07
:101050009023DB0504211800FFF711FF0F20FFF795
:1010600031FF9023DB050421180000F0CDFE031EA4
:101070000BD001223B689A4013005AB2FB1D1B782B
:101080005BB213435AB2FB1D1A703220FFF71AFFEE
:101090003B6801333B603B68072BC9DDFB1D1B78B8
:1010A0001800BD4602B080BD80B500AF00F0FAFB6D
:1010B00000F080F9FFF70CFE00F04CFB00F0BCFAEA
:1010C00000F0E2FA00F048FC0200A74B1A609023FF
:1010D000DB0500224021180000F0B3FEA34B1800EE
:1010E00001F080FCA24B1A68FA239B009A4200D2BE
:1010F00092E0A04B1B78032B47D000DD85E0022B4C
:101100002DD000DD81E0002B02D0012B10D07CE03F
:10111000FFF7F2FE03001A00974B1A70974B01225B
:101120001A60974B00221A60924B01221A7073E0EA
:10113000934B1A68914B1B689A4268D3CC20FFF7F7
:1011400016FF4420FFF713FF8C4BC82292001A6051
:101150008B4B00221A60874B02221A7057E0884B93
:101160001A68864B1B689A4253D3FFF7C5FE0300EB
:101170001A00814B1A70814B01221A60804B0022A9
:101180001A607C4B03221A7043E07D4B1A687B4B3C
:101190001B689A423FD3CC20FFF7E9FEBE20FFF741
:1011A000E6FEFFF736FF03001A00764B1A70FFF7D2
:1011B00030FF03001A00744B1A70734B1B781B022C
:1011C0001AB2704B1B781BB213431BB29AB26F4B0F
:1011D0001A806E4B1B881800FFF714FD031C832137
:1011E000C905181CFFF7F6F9031C1A1C684B1A6096
:1011F000624B00221A60624B00221A605C4B002294
:101200001A605C4B00221A7005E0C04604E0C0463C
:1012100002E0C04600E0C0465D4B1A685D4B1B68AB
:10122000191C101CFFF72CF8031E00D170E0594B5D
:101230001A68594B1B68191C101CFFF72BF8031C6C
:101240001A1C534B1B68191C101CFFF705F8031ED2
:101250005AD0514B1B68191C181CFFF71BF8031CB4
:101260001A1C4C4B1B68191C101CFFF713F8031CAD
:101270001A1C474B1B68191C101CFEF7EDFF031EC0
:101280003ED0454B1B684549181CFFF76DFB031CFE
:101290001A1C404B1B68191C101CFEF7FBFF031C9B
:1012A0001A1C3B4B1B68191C101CFEF7D5FF031EB4
:1012B00021D0394B1B688121C905181CFFF754FB4D
:1012C000031C1A1C334B1B68191C101CFEF7E2FF91
:1012D000031C1A1C2E4B1B68191C101CFEF7BCFFAC
:1012E000031E03D02E4B05221A6014E02C4BFA2269
:1012F000D2001A600FE02A4BFA2212011A600AE0AB
:10130000274B284A1A6006E0254B274A1A6002E05C
:10131000234B264A1A6000F01FFB0200124B1B6889
:10132000D31A012B00D8DDE600F016FB02000E4BAD
:101330001B68D21A1E4B1A600D4B1A681C4B1B6897
:10134000D2180B4B1A600E4B1A68194B1B68D21837
:101350000B4B1A60164B00221A6000F0FDFA0200D7
:10136000014B1A60BEE6C046480000205C00002029
:1013700054000020580000204000002008000020F9
:1013800050000020410000204200002044000020C6
:101390003C0000200000002004000020000040402D
:1013A0000C000020701700008813000010270000B8
:1013B0004C00002090B595B000AF20243B191800D8
:1013C00030231A00002102F017F91023FB1818002F
:1013D00010231A00002102F00FF93B00180010231F
:1013E0001A00002102F008F921007B1802221A607D
:1013F0007B180122DA607B1810221A617B18022206
:101400001A627B1800225A627B18A02292039A6209
:101410007B180022DA627B18180000F067FD031EBB
:1014200001D000F0ADF810217B1807221A607B185C
:1014300002225A607B1800229A607B180022DA6030
:101440007B180121180001F06BF8031E01D000F099
:1014500097F83B0001221A603B0000229A603B0093
:10146000180001F0A1F9031E01D000F089F8C04670
:10147000BD4615B090BD000080B582B000AF02003F
:10148000BB1D1A80BB1D1B88802B1ED19023DB0542
:101490000121180000F0F2FC0E4B180001F026FBB1
:1014A0000C4B1B680C4A1268DA620B4B1A68094B2A
:1014B000DA60084B1B6800225A62084B00221A703F
:1014C000044B180001F0CCFA00E0C046C046BD460F
:1014D00002B080BDA40000200C00002038000020D5
:1014E00080B582B000AF7860224B0221180000F076
:1014F000C5FC214B1B78002B19D01F4B00221A7002
:101500001E4B180001F0F2FA9023DB050022402167
:10151000180000F096FC194B1B680022DA62174B8A
:101520000022DA60154B1B6800225A621EE0134B42
:10153000180001F0DBFA114B1B68FA229200DA6204
:101540000E4BFA229200DA600C4B1B6800225A62A2
:101550000A4B180001F084FA9023DB050122402198
:10156000180000F06EFC044B01221A70C046BD4604
:1015700002B080BD0004004838000020A400002014
:1015800080B500AF72B6C046FEE7000080B582B0FD
:1015900000AF0F4B9A690E4B01210A439A610C4B25
:1015A0009B69012213407B607B68094BDA69084B19
:1015B000802149050A43DA61054BDA6980235B051E
:1015C00013403B603B68C046BD4602B080BDC0468C
:1015D0000010024080B500AFFEE780B500AFFEE727
:1015E00080B500AFC046BD4680BD80B500AFC046E7
:1015F000BD4680BD80B500AF00F09CF9C046BD4639
:1016000080BD80B500AF802000F054FCC046BD46D0
:1016100080BD000080B500AF034B180001F094FAC4
:10162000C046BD4680BDC046A400002080B500AFC6
:10163000C046BD4680BD000080B500AF0F4B104ACC
:101640001A600E4B2F225A600C4B00229A600B4BF3
:101650000C4ADA60094B00221A61084B00225A61D9
:10166000064B00229A61054B180001F06BF9031E2E
:1016700001D0FFF785FFC046BD4680BD5C0000205D
:1016800000440140FFFF000080B500AF0F4B104A3F
:101690001A600E4B2F225A600C4B00229A600B4BA3
:1016A0000C4ADA60094B00221A61084B00225A6189
:1016B000064B00229A61054B180001F043F9031E06
:1016C00001D0FFF75DFFC046BD4680BDA4000020ED
:1016D00000480140FFFF000080B584B000AF786093
:1016E0007B681B68184A93420ED1184B9A69174BB6
:1016F000802189020A439A61144B9A6980239B02D4
:101700001340FB60FB681AE07B681B68104A934239
:1017100015D10E4B9A690D4B8021C9020A439A617B
:101720000A4B9A698023DB021340BB60BB6800222E
:101730000021162000F0C6F9162000F0D8F9C046A6
:10174000BD4604B080BDC0460044014000100240C8
:101750000048014080B500AF144B154A1A60134B86
:10176000E12252025A60114B00229A600F4B002274
:10177000DA600E4B00221A610C4B0C225A610B4BA3
:1017800000229A61094B0022DA61084B00221A629A
:10179000064B00225A62054B180001F087FB031E1E
:1017A00001D0FFF7EDFEC046BD4680BDEC00002035
:1017B0000038014090B58BB000AF786014243B191D
:1017C000180014231A00002101F016FF7B681B6823
:1017D0001D4A934233D11D4B9A691C4B8021C9018C
:1017E0000A439A61194B9A698023DB0113403B61DC
:1017F0003B69164B5A69154B802189020A435A618D
:10180000124B5A6980239B021340FB60FB683B1913
:10181000C022D2001A6021007B1802225A607B1875
:1018200000229A607B180322DA607B1801221A6179
:101830007A189023DB051100180000F075F9C046F6
:10184000BD460BB090BDC0460038014000100240BC
:101850000D488546FFF7EAFE0C480D490D4A002366
:1018600002E0D458C4500433C4188C42F9D30A4A55
:101870000A4C002301E013600432A242FBD301F0C2
:10188000C3FEFFF711FCFEE700100020000000205F
:101890001C000020283700081C00002078010020D0
:1018A000FEE7000080B500AF074B1A68064B102119
:1018B0000A431A60032000F009F8FFF767FE0023CF
:1018C0001800BD4680BDC0460020024090B583B0E0
:1018D00000AF7860144B1C68144B1B781900FA2376
:1018E0009800FEF711FC030019002000FEF70CFC25
:1018F0000300180000F00BF9031E01D001230FE0D4
:101900007B68032B0BD8796801235B420022180007
:1019100000F0D8F8064B7A681A60002300E0012333
:101920001800BD4603B090BD100000201800002034
:101930001400002080B500AF054B1B781A00054B42
:101940001B68D218034B1A60C046BD4680BDC04616
:10195000180000207401002080B500AF024B1B6806
:101960001800BD4680BDC0467401002080B582B01D
:1019700000AF0200FB1D1A70FB1D1B787F2B09D8DE
:10198000FB1D1B781A001F231A40044B01219140B4
:101990000A001A60C046BD4602B080BD00E100E00A
:1019A00090B583B000AF02003960FB1D1A70FB1DBB
:1019B0001B787F2B28D82F4AFB1D1B785BB29B0816
:1019C000C0339B009B58FA1D1278110003220A4075
:1019D000D200FF2191400A00D2431A4011003B6817
:1019E0009B01FF221A40FB1D1B78180003230340B4
:1019F000DB009A401F48FB1D1B785BB29B080A4323
:101A0000C0339B001A5031E01B4AFB1D1B781900A4
:101A10000F230B40083B9B0806339B00D31804336D
:101A20001B68FA1D1278110003220A40D200FF2120
:101A300091400A00D2431A4011003B689B01FF22EB
:101A40001A40FB1D1B78180003230340DB009A405B
:101A50000948FB1D1B781C000F232340083B9B08F3
:101A60000A4306339B00C31804331A60C046BD46C0
:101A700003B090BD00E100E000ED00E080B582B071
:101A800000AF78607B685A1E80235B049A4201D3C2
:101A9000012310E00A4B7A68013A5A6001235B4245
:101AA00003211800FFF77CFF054B00229A60044BCE
:101AB00007221A6000231800BD4602B080BDC04650
:101AC00010E000E080B584B000AFB9607A600F210B
:101AD0007B18021C1A70BA687B181B785BB2110065
:101AE0001800FFF75DFFC046BD4604B080BD80B55D
:101AF00082B000AF0200FB1D1A70FB1D1B785BB2A9
:101B00001800FFF733FFC046BD4602B080BD80B568
:101B100082B000AF78607B681800FFF7AFFF03006A
:101B20001800BD4602B080BD80B586B000AF7860B9
:101B3000396000237B614FE13B681B6801217A69B2
:101B400091400A001340FB60FB68002B00D140E18C
:101B50003B685B6803221340012B05D03B685B6840
:101B600003221340022B30D17B689B683B617B6969
:101B70005B0003229A401300DA433B6913403B6148
:101B80003B68DA687B695B009A4013003A6913434B
:101B90003B617B683A699A607B685B683B610122C4
:101BA0007B699A401300DA433B6913403B613B6811
:101BB0005B681B0901221A407B699A4013003A694D
:101BC00013433B617B683A695A603B685B68032258
:101BD0001340032B17D07B68DB683B617B695B009C
:101BE00003229A401300DA433B6913403B613B6890
:101BF0009A687B695B009A4013003A6913433B6122
:101C00007B683A69DA603B685B6803221340022B09
:101C100023D17B69DA087B6808329200D3583B6194
:101C20007B69072213409B000F229A401300DA437E
:101C30003B6913403B613B681A697B6907210B4094
:101C40009B009A4013003A6913433B617B69DA08B1
:101C50007B68083292003969D1507B681B683B6110
:101C60007B695B0003229A401300DA433B6913400F
:101C70003B613B685B6803221A407B695B009A40CA
:101C800013003A6913433B617B683A691A603B6809
:101C90005A68C0239B02134000D19AE0544B9A69C2
:101CA000534B01210A439A61514B9B690122134016
:101CB000BB60BB684F4A7B699B0802339B009B5803
:101CC0003B617B69032213409B000F229A40130063
:101CD000DA433B6913403B617A689023DB059A4203
:101CE00013D07B68444A93420DD07B68434A9342A9
:101CF00007D07B68424A934201D1032306E00523C3
:101D000004E0022302E0012300E000237A690321BA
:101D10000A40920093403A6913433B6135497B691D
:101D20009B0802339B003A695A50364B9B683B61D3
:101D3000FB68DA433B6913403B613B685A68802388
:101D40005B03134003D03A69FB6813433B612D4B9F
:101D50003A699A602B4BDB683B61FB68DA433B696D
:101D600013403B613B685A6880239B03134003D0B8
:101D70003A69FB6813433B61224B3A69DA60214BB5
:101D80005B683B61FB68DA433B6913403B613B683E
:101D90005A6880239B02134003D03A69FB681343BF
:101DA0003B61184B3A695A60164B1B683B61FB68F4
:101DB000DA433B6913403B613B685A6880235B020E
:101DC000134003D03A69FB6813433B610D4B3A69FA
:101DD0001A607B6901337B613B681A687B69DA4072
:101DE000131E00D0A8E6C046C046BD4606B080BD62
:101DF00000100240000001400004004800080048B4
:101E0000000C00480004014080B584B000AF786049
:101E10000A00BB1C1A807B681B69BA1C128813401D
:101E200004D00F23FB1801221A7003E00F23FB18C4
:101E300000221A700F23FB181B781800BD4604B04F
:101E400080BD80B582B000AF786008001100BB1C77
:101E5000021C1A807B1C0A1C1A707B1C1B78002B2E
:101E600004D0BB1C1A887B689A6103E0BB1C1A88EB
:101E70007B689A62C046BD4602B080BD80B584B022
:101E800000AF78600A00BB1C1A807B685B69FB604E
:101E9000BB1C1B88FA6813401A04FB68DB43B91C9F
:101EA00009880B401A437B689A61C046BD4604B05E
:101EB00080BD000080B582B000AF0200BB1D1A805B
:101EC000094B5B69BA1D1288134008D0064BBA1D36
:101ED00012885A61BB1D1B881800FFF7CDFAC04657
:101EE000BD4602B080BDC0460004014080B588B048
:101EF00000AF78607B68002B01D1012301E37B6890
:101F00001B680122134000D18DE0C34B5B680C229B
:101F10001340042B0ED0C04B5B680C221340082BDF
:101F200016D1BD4B5A6880235B021A4080235B02A6
:101F30009A420DD1B84B1A6880239B02134000D1FE
:101F400070E07B685B68002B00D06BE00123D8E277
:101F50007B685B68012B07D1AF4B1A68AE4B8021C1
:101F600049020A431A602FE07B685B68002B0CD1A2
:101F7000A94B1A68A84BA9490A401A60A64B1A68CF
:101F8000A54BA7490A401A601EE07B685B68052BD9
:101F90000ED1A14B1A68A04B8021C9020A431A60D6
:101FA0009D4B1A689C4B802149020A431A600BE042
:101FB000994B1A68984B99490A401A60964B1A68CF
:101FC000954B97490A401A607B685B68002B14D0D8
:101FD000FFF7C2FC0300BB6108E0FFF7BDFC020095
:101FE000BB69D31A642B01D903238AE28A4B1A688E
:101FF00080239B021340F0D015E0FFF7ADFC0300F7
:10200000BB6108E0FFF7A8FC0200BB69D31A642B90
:1020100001D9032375E2804B1A6880239B02134089
:10202000F0D100E0C0467B681B680222134000D15B
:1020300069E0794B5B680C2213400BD0764B5B68F0
:102040000C221340082B1CD1734B5A6880235B026F
:10205000134016D1704B1B680222134005D07B68D9
:10206000DB68012B01D001234BE26B4B1B68F8228C
:10207000934319007B681B69DA00674B0A431A60B7
:1020800041E07B68DB68002B24D0634B1A68624B0D
:1020900001210A431A60FFF75FFC0300BB6108E0FF
:1020A000FFF75AFC0200BB69D31A022B01D90323A4
:1020B00027E2594B1B6802221340F1D0564B1B6894
:1020C000F822934319007B681B69DA00524B0A43DC
:1020D0001A6018E0504B1A684F4B01218A431A606E
:1020E000FFF73AFC0300BB6108E0FFF735FC020094
:1020F000BB69D31A022B01D9032302E2464B1B68AA
:1021000002221340F1D17B681B680822134036D0AD
:102110007B68DB69002B19D03F4B5A6A3E4B01218B
:102120000A435A62FFF718FC0300BB6108E0FFF79F
:1021300013FC0200BB69D31A022B01D90323E0E18F
:10214000354B5B6A02221340F1D018E0324B5A6AD9
:10215000314B01218A435A62FFF7FEFB0300BB614A
:1021600008E0FFF7F9FB0200BB69D31A022B01D983
:102170000323C6E1284B5B6A02221340F1D17B683E
:102180001B680422134000D1B4E01F203B1800223A
:102190001A70214BDA6980235B05134010D11E4B66
:1021A000DA691D4B802149050A43DA611A4BDA6965
:1021B00080235B051340FB60FB683B1801221A700B
:1021C000184B1A6880235B0013401AD1154B1A680C
:1021D000144B802149000A431A60FFF7BDFB03003E
:1021E000BB6108E0FFF7B8FB0200BB69D31A642BA0
:1021F00001D9032385E10B4B1A6880235B00134050
:10220000F0D07B689B68012B0ED1034B1A6A024BFE
:1022100001210A431A6235E000100240FFFFFEFF71
:10222000FFFFFBFF007000407B689B68002B0CD118
:10223000B64B1A6AB54B01218A431A62B34B1A6A2C
:10224000B24B04218A431A621CE07B689B68052B11
:102250000CD1AE4B1A6AAD4B04210A431A62AB4B48
:102260001A6AAA4B01210A431A620BE0A74B1A6AA9
:10227000A64B01218A431A62A44B1A6AA34B04217C
:102280008A431A627B689B68002B14D0FFF764FBBB
:102290000300BB6109E0FFF75FFB0200BB69D31AD3
:1022A0009B4A934201D903232BE1984B1B6A0222DC
:1022B0001340F0D013E0FFF74FFB0300BB6109E0D0
:1022C000FFF74AFB0200BB69D31A914A934201D936
:1022D000032316E18D4B1B6A02221340F0D11F230A
:1022E000FB181B78012B05D1884BDA69874B89498C
:1022F0000A40DA617B681B681022134063D07B6858
:102300005B69012B2AD1814B5A6B804B04210A4314
:102310005A637E4B5A6B7D4B01210A435A63FFF788
:102320001BFB0300BB6108E0FFF716FB0200BB6963
:10233000D31A022B01D90323E3E0744B5B6B022217
:102340001340F1D0714B5B6BF822934319007B680B
:102350009B69DA006D4B0A435A6334E07B685B6922
:10236000053311D1694B5A6B684B04218A435A6378
:10237000664B5B6BF822934319007B689B69DA001C
:10238000624B0A435A631EE0604B5A6B5F4B042159
:102390000A435A635D4B5A6B5C4B01218A435A6373
:1023A000FFF7DAFA0300BB6108E0FFF7D5FA020095
:1023B000BB69D31A022B01D90323A2E0534B5B6BF9
:1023C00002221340F1D17B681B6A002B00D197E0F9
:1023D0004E4B5B680C221340082B00D16BE07B68EE
:1023E0001B6A022B4CD1494B1A68484B4A490A4098
:1023F0001A60FFF7B1FA0300BB6108E0FFF7ACFA1F
:102400000200BB69D31A022B01D9032379E03F4BA9
:102410001A6880239B041340F0D13C4BDB6A0F22E7
:10242000934319007B68DA6A384B0A43DA62374B08
:102430005B683A4A134019007B689A6A7B685B6A5A
:102440001A43324B0A435A60304B1A682F4B802193
:1024500049040A431A60FFF77FFA0300BB6108E0F2
:10246000FFF77AFA0200BB69D31A022B01D90323C2
:1024700047E0264B1A6880239B041340F0D03FE0CE
:10248000224B1A68214B24490A401A60FFF764FA6C
:102490000300BB6108E0FFF75FFA0200BB69D31AD3
:1024A000022B01D903232CE0184B1A6880239B04CC
:1024B0001340F0D124E07B681B6A012B01D101237A
:1024C0001FE0124B5B687B61104BDB6A3B617A69F2
:1024D00080235B021A407B685B6A9A420ED13B699B
:1024E0000F221A407B68DB6A9A4207D17A69F0238F
:1024F0009B031A407B689B6A9A4201D0012300E04B
:1025000000231800BD4608B080BDC0460010024040
:1025100088130000FFFFFFEFFFFFFFFEFFFFC2FF7A
:1025200080B584B000AF786039607B68002B01D142
:102530000123B3E05B4B1B68012213403A689A42C7
:1025400011D9584B1B68012293431900554B3A6827
:102550000A431A60534B1B68012213403A689A429F
:1025600001D001239AE07B681B680222134015D03A
:102570007B681B680422134006D04B4B5A684A4BB9
:10258000E021C9000A435A60474B5B68F02293433D
:1025900019007B689A68444B0A435A607B681B6841
:1025A0000122134040D07B685B68012B07D13E4B72
:1025B0001A6880239B02134014D101236EE07B68CC
:1025C0005B68022B07D1384B1A6880239B041340A9
:1025D00008D1012362E0344B1B680222134001D171
:1025E00001235BE0304B5B680322934319007B6857
:1025F0005A682D4B0A435A60FFF7AEF90300FB609F
:1026000009E0FFF7A9F90200FB68D31A274A9342B1
:1026100001D9032342E0244B5B680C221A407B68FB
:102620005B689B009A42ECD11E4B1B680122134051
:102630003A689A4211D21B4B1B680122934319003E
:10264000184B3A680A431A60164B1B680122134064
:102650003A689A4201D0012320E07B681B6804227B
:10266000134009D0104B5B68114A134019007B6876
:10267000DA680D4B0A435A6000F020F801000A4B5B
:102680005B681B090F2213400A4AD35C0A00DA4038
:10269000094B1A600320FFF719F900231800BD4603
:1026A00004B080BD002002400010024088130000EA
:1026B000FFF8FFFFE83600081000002080B586B064
:1026C00000AF0023FB600023BB6000237B6100237D
:1026D0007B6000233B61204B5B68FB60FB680C2246
:1026E0001340042B02D0082B03D02CE01B4B3B6182
:1026F0002CE0FB689B0C0F221340194AD35C7B60D3
:10270000154BDB6A0F221340164AD35CBB60FA6894
:1027100080235B02134009D0B9681048FDF7F4FC30
:1027200003001A007B6853437B6109E079680A0063
:102730005201521A93019B1ADB005B181B027B614A
:102740007B693B6102E0054B3B61C0463B69180079
:10275000BD4606B080BDC0460010024000127A009F
:10276000003700081037000880B500AF024B1B6827
:102770001800BD4680BDC0461000002080B500AFE7
:10278000FFF7F2FF0100064B5B681B0A07221340AC
:10279000044AD35CD9400B001800BD4680BDC0463A
:1027A00000100240F836000880B586B000AF7860AF
:1027B00000233B610023FB607B681A6880235B0277
:1027C000134000D18EE017203B1800221A70574B9F
:1027D000DA6980235B05134010D1544BDA69534BFF
:1027E000802149050A43DA61504BDA6980235B0591
:1027F0001340BB60BB683B1801221A704C4B1A682F
:1028000080235B0013401AD1494B1A68484B802142
:1028100049000A431A60FFF79FF803003B6108E094
:10282000FFF79AF802003B69D31A642B01D90323FE
:1028300077E03F4B1A6880235B001340F0D03B4B9E
:102840001A6AC0239B001340FB60FB68002B34D046
:102850007B685A68C0239B001340FA689A422CD0C8
:10286000324B1B6A334A1340FB60304B1A6A2F4BC2
:10287000802149020A431A622C4B1A6A2B4B2E49BB
:102880000A401A62294BFA681A62FB680122134057
:1028900013D0FFF761F803003B6109E0FFF75CF834
:1028A00002003B69D31A254A934201D9032338E039
:1028B0001E4B1B6A02221340F0D01C4B1B6A1D4AA0
:1028C000134019007B685A68184B0A431A62172391
:1028D000FB181B78012B05D1144BDA69134B1849EF
:1028E0000A40DA617B681B680122134009D00F4B54
:1028F0001B6B0322934319007B689A680B4B0A43B6
:102900001A637B681B682022134009D0074B1B6B9E
:102910001022934319007B68DA68044B0A431A6358
:1029200000231800BD4606B080BDC046001002401E
:1029300000700040FFFCFFFFFFFFFEFF8813000058
:10294000FFFFFFEF80B582B000AF78607B68002B9F
:1029500001D1012342E07B683D229B5CDBB2002B6E
:1029600007D17B683C22002199547B681800FEF750
:10297000B3FE7B683D22022199547B681A687B680C
:1029800004331900100000F015FA7B68462201217B
:1029900099547B683E22012199547B683F22012192
:1029A00099547B684022012199547B68412201217E
:1029B00099547B684222012199547B68432201216A
:1029C00099547B684422012199547B684522012156
:1029D00099547B683D220121995400231800BD467B
:1029E00002B080BD80B584B000AF78607B683D22C6
:1029F0009B5CDBB2012B01D0012328E07B683D22E8
:102A0000022199547B681B68134A934204D07B6867
:102A10001B68124A934211D17B681B689B6807228E
:102A20001340FB60FB68062B10D07B681B681A689C
:102A30007B681B6801210A431A6007E07B681B68FA
:102A40001A687B681B6801210A431A60002318007A
:102A5000BD4604B080BDC046002C014000040040CB
:102A600080B584B000AF78607B683D229B5CDBB2B0
:102A7000012B01D0012330E07B683D2202219954D3
:102A80007B681B68DA687B681B6801210A43DA608F
:102A90007B681B68134A934204D07B681B68124A08
:102AA000934211D17B681B689B6807221340FB602F
:102AB000FB68062B10D07B681B681A687B681B6854
:102AC00001210A431A6007E07B681B681A687B686B
:102AD0001B6801210A431A6000231800BD4604B098
:102AE00080BDC046002C01400004004080B582B08B
:102AF00000AF78607B681B68DA687B681B6801211F
:102B00008A43DA607B681B681B6A0D4A13400DD14B
:102B10007B681B681B6A0B4A134007D17B681B68E4
:102B20001A687B681B6801218A431A607B683D2212
:102B30000121995400231800BD4602B080BDC04653
:102B4000111100004404000080B582B000AF78602D
:102B50007B681B681B6902221340022B24D17B680F
:102B60001B68DB6802221340022B1DD17B681B68A7
:102B7000032252421A617B6801221A777B681B6824
:102B80009B690322134004D07B68180000F0FAF818
:102B900007E07B68180000F0EDF87B68180000F093
:102BA000F9F87B6800221A777B681B681B6904228E
:102BB0001340042B25D17B681B68DB68042213407B
:102BC000042B1ED17B681B68052252421A617B6868
:102BD00002221A777B681B689A69C0239B00134006
:102BE00004D07B68180000F0CDF807E07B6818007F
:102BF00000F0C0F87B68180000F0CCF87B68002279
:102C00001A777B681B681B6908221340082B24D1A4
:102C10007B681B68DB6808221340082B1DD17B688A
:102C20001B68092252421A617B6804221A777B686A
:102C30001B68DB690322134004D07B68180000F096
:102C4000A1F807E07B68180000F094F87B68180092
:102C500000F0A0F87B6800221A777B681B681B696C
:102C600010221340102B25D17B681B68DB681022D3
:102C70001340102B1ED17B681B68112252421A612F
:102C80007B6808221A777B681B68DA69C0239B007F
:102C9000134004D07B68180000F074F807E07B68EC
:102CA000180000F067F87B68180000F073F87B6884
:102CB00000221A777B681B681B6901221340012BD5
:102CC0000FD17B681B68DB6801221340012B08D100
:102CD0007B681B68022252421A617B681800FEF76B
:102CE000FFFB7B681B681B6980221340802B0FD180
:102CF0007B681B68DB6880221340802B08D17B68CF
:102D00001B68812252421A617B68180000F0C6F8E5
:102D10007B681B681B6940221340402B0FD17B68E6
:102D20001B68DB6840221340402B08D17B681B687E
:102D3000412252421A617B68180000F033F87B6828
:102D40001B681B6920221340202B0FD17B681B6856
:102D5000DB6820221340202B08D17B681B682122CE
:102D600052421A617B68180000F090F8C046BD46D8
:102D700002B080BD80B582B000AF7860C046BD466D
:102D800002B080BD80B582B000AF7860C046BD465D
:102D900002B080BD80B582B000AF7860C046BD464D
:102DA00002B080BD80B582B000AF7860C046BD463D
:102DB00002B080BD80B584B000AF786039607B68B8
:102DC0001B68FB607B682B4A934203D07B682A4ACE
:102DD000934208D1FB6870229343FB603B685B68B9
:102DE000FA681343FB607B68224A93420FD07B68EA
:102DF000214A93420BD07B68204A934207D07B68DC
:102E00001F4A934203D07B681E4A934208D1FB6855
:102E10001D4A1340FB603B68DB68FA681343FB60A4
:102E2000FB68802293431A003B685B691343FB6095
:102E30007B68FA681A603B689A687B68DA623B686C
:102E40001A687B689A627B680A4A934207D07B685B
:102E50000B4A934203D07B680A4A934203D13B68F2
:102E60001A697B681A637B6801225A61C046BD46B5
:102E700004B080BD002C0140000400400020004050
:102E80000044014000480140FFFCFFFF80B582B0D4
:102E900000AF7860C046BD4602B080BD80B582B04C
:102EA00000AF7860C046BD4602B080BD80B582B03C
:102EB00000AF78607B68002B01D1012344E07B6880
:102EC000DB6F002B07D17B687822002199547B6847
:102ED0001800FEF76FFC7B682422DA677B681B68AA
:102EE0001A687B681B6801218A431A607B68180096
:102EF00000F030F80300012B01D1012324E07B68AE
:102F00005B6A002B03D07B68180000F04BF97B68EC
:102F10001B685A687B681B680D490A405A607B68C9
:102F20001B689A687B681B6808218A439A607B68E3
:102F30001B681A687B681B6801210A431A607B685A
:102F4000180000F0E3F903001800BD4602B080BD90
:102F5000FFF7FFFF80B588B000AF78601E23FB1835
:102F600000221A707B689A687B681B691A437B6829
:102F70005B691A437B68DB6913437B617B681B6871
:102F80001B68834A134019007B681B687A690A43EF
:102F90001A607B681B685B687E4A134019007B6877
:102FA000DA687B681B680A435A607B689B697B61AF
:102FB0007B681B6A7A6913437B617B681B689B682B
:102FC000754A134019007B681B687A690A439A6046
:102FD000724B1B6B03221340032B0DD01BD8022B0B
:102FE00014D018D8002B02D0012B0AD013E01F23D5
:102FF000FB1800221A7012E01F23FB1802221A701D
:103000000DE01F23FB1804221A7008E01F23FB1891
:1030100008221A7003E01F23FB1810221A707B6825
:10302000DA6980231B029A425CD11F23FB181B78AC
:10303000082B15D018DC042B0DD015DC002B02D08A
:10304000022B05D010E0FFF799FB0300BB6112E0F3
:10305000534BBB610FE0FFF731FB0300BB610AE09C
:1030600080231B02BB6106E00023BB611E23FB180B
:1030700001221A70C046BB69002B00D17AE0BB69FF
:103080005A007B685B685B08D2187B685B68190034
:103090001000FDF739F803003B613B690F2B1CD989
:1030A0003A6980235B029A4217D23B699AB20E209A
:1030B0003B180F218A431A803B695B089BB20722A9
:1030C000134099B23B183A1812880A431A807B6859
:1030D0001B683A181288DA604CE01E23FB180122A4
:1030E0001A7047E01F23FB181B78082B15D018DC3B
:1030F000042B0DD015DC002B02D0022B05D010E0E4
:10310000FFF73CFB0300BB6112E0254BBB610FE006
:10311000FFF7D4FA0300BB610AE080231B02BB6106
:1031200006E00023BB611E23FB1801221A70C04673
:10313000BB69002B1ED07B685B685A08BB69D2183C
:103140007B685B6819001000FCF7DEFF03003B6141
:103150003B690F2B0AD93A6980235B029A4205D258
:103160003B699AB27B681B68DA6003E01E23FB1898
:1031700001221A707B6800229A667B680022DA6658
:103180001E23FB181B781800BD4608B080BDC04642
:10319000F369FFFFFFCFFFFFFFF4FFFF00100240C6
:1031A00000127A0080B582B000AF78607B685B6AFD
:1031B000012213400BD07B681B685B684A4A1340AE
:1031C00019007B689A6A7B681B680A435A607B68AF
:1031D0005B6A022213400BD07B681B685B68434A22
:1031E000134019007B68DA6A7B681B680A435A60DF
:1031F0007B685B6A042213400BD07B681B685B68AA
:103200003B4A134019007B681A6B7B681B680A43B2
:103210005A607B685B6A082213400BD07B681B688E
:103220005B68344A134019007B685A6B7B681B68E3
:103230000A435A607B685B6A102213400BD07B689C
:103240001B689B682C4A134019007B689A6B7B684B
:103250001B680A439A607B685B6A202213400BD08C
:103260007B681B689B68254A134019007B68DA6BF2
:103270007B681B680A439A607B685B6A4022134044
:103280001DD07B681B685B681D4A134019007B6872
:103290001A6C7B681B680A435A607B681A6C80232F
:1032A0005B039A420BD17B681B685B68154A13402D
:1032B00019007B685A6C7B681B680A435A607B68FC
:1032C0005B6A802213400BD07B681B685B680E4AE8
:1032D000134019007B689A6C7B681B680A435A602C
:1032E000C046BD4602B080BDFFFFFDFFFFFFFEFFF1
:1032F000FFFFFBFFFF7FFFFFFFEFFFFFFFDFFFFF92
:10330000FFFFEFFFFFFF9FFFFFFFF7FF80B592B0CA
:1033100002AF78607B68842200219950FEF71CFB85
:103320000300FB637B681B681B6808221340082BA3
:103330002CD1FB6B802291037868464A00920022D0
:1033400000F08CF8031E21D0EFF310837B627B6AC0
:10335000BB630123BB62BB6A83F31088C0467B68F2
:103360001B681A687B681B6880218A431A60BB6BE4
:10337000FB62FB6A83F31088C0467B682022DA6711
:103380007B6878220021995403235FE07B681B68E7
:103390001B6804221340042B46D1FB6B8022D1030F
:1033A00078682C4A0092002200F058F8031E3BD0A7
:1033B000EFF31083FB60FB687B6301233B613B6998
:1033C00083F31088C0467B681B681A687B681B689B
:1033D00021490A401A607B6B7B617B6983F310880B
:1033E000C046EFF31083BB61BB693B630123FB6104
:1033F000FB6983F31088C0467B681B689A687B680A
:103400001B6801218A439A603B6B3B623B6A83F3F2
:103410001088C0467B688022202199507B687822E2
:1034200000219954032311E07B682022DA677B682E
:103430008022202199507B6800221A667B68002236
:103440005A667B6878220021995400231800BD46F3
:1034500010B080BDFFFFFF01DFFEFFFF80B584B02D
:1034600000AFF860B9603B60FB1D1A704BE0BB69B0
:10347000013348D0FEF770FA02003B68D31ABA69EC
:103480009A4202D3BB69002B01D103234BE0FB68B6
:103490001B681B680422134035D0FB681B68DB697E
:1034A00008221340082B11D1FB681B6808221A62FE
:1034B000FB68180000F03CF8FB6884220821995052
:1034C000FB6878220021995401232CE0FB681B68DB
:1034D000DA6980231B011A4080231B019A4212D112
:1034E000FB681B68802212011A62FB68180000F05A
:1034F0001FF8FB68842220219950FB687822002164
:10350000995403230FE0FB681B68DB69BA6813401A
:10351000BA68D31A5A425341DBB21A00FB1D1B781A
:103520009A42A4D000231800BD4604B080BD00001C
:1035300080B58EB000AF7860EFF310837B617B695C
:103540007B630123BB61BB6983F31088C0467B6842
:103550001B681A687B681B6826490A401A607B6BE7
:10356000FB61FB6983F31088C046EFF310833B6275
:103570003B6A3B6301237B627B6A83F31088C0460E
:103580007B681B689A687B681B6801218A439A6084
:103590003B6BBB62BB6A83F31088C0467B681B6EC3
:1035A000012B18D1EFF31083BB60BB68FB620123D2
:1035B000FB60FB6883F31088C0467B681B681A6851
:1035C0007B681B6810218A431A60FB6A3B613B6978
:1035D00083F31088C0467B688022202199507B6845
:1035E00000221A667B6800229A66C046BD460EB06D
:1035F00080BDC046DFFEFFFF03008218934200D16A
:10360000704719700133F9E770B500260C4C0D4D69
:10361000641BA410A64209D1002600F019F80A4C38
:103620000A4D641BA410A64205D170BDB300EB582F
:1036300098470136EEE7B300EB5898470136F2E7BA
:1036400020370008203700082437000820370008FA
:10365000F8B5C046F8BC08BC9E467047F8B5C046F1
:08366000F8BC08BC9E4670474F
:10366800AC0700083A0700088E060008460600085E
:103678008E060008760700088E0600084606000831
:103688003A0700083A0700087607000846060008C7
:103698004C0600084C0600084C0600088407000881
:1036A8003A0700083A0700088E0600084206000894
:1036B8008E060008760700088E06000842060008F5
:1036C8003A0700083A07000876070008420600088B
:1036D8004C0600084C0600084C0600088007000845
:1036E80000000000000000000102030406070809AA
:1036F800000000000102030402030405060708098C
:103708000A0B0C0D0E0F1010010203040506070822
:08371800090A0B0C0D0E0F1045
:04372000E9000008B4
:04372400C1000008D8
:103728000000C8410000404001000000881300006C
:0C37380000127A000400000001000000F4
:040000050800185186
:00000001FF
