:020000040800F2
:1000000000100020951F0008111D0008171D000892
:1000100000000000000000000000000000000000E0
:100020000000000000000000000000001D1D00088E
:100030000000000000000000271D0008311D00081E
:10004000E51F000800000000E51F0008E51F00088C
:10005000E51F0008E51F0008E51F00083F1D000818
:1000600000000000E51F0008E51F0008E51F00086C
:10007000E51F0008E51F0008E51F0008000000005C
:10008000E51F00080000000000000000E51F000858
:1000900000000000E51F0008591D0008E51F0008CA
:1000A00000000000E51F000800000000E51F000838
:1000B0000000000000000000000000000000000040
:1000C00010B5064C2378002B07D1054B002B02D02E
:1000D000044800E000BF0123237010BD1800002079
:1000E0000000000090370008044B10B5002B03D02F
:1000F0000349044800E000BF10BDC04600000000F6
:100100001C00002090370008002243088B4274D363
:1001100003098B425FD3030A8B4244D3030B8B4208
:1001200028D3030C8B420DD3FF22090212BA030C11
:100130008B4202D31212090265D0030B8B4219D3F2
:1001400000E0090AC30B8B4201D3CB03C01A524112
:10015000830B8B4201D38B03C01A5241430B8B425A
:1001600001D34B03C01A5241030B8B4201D30B0343
:10017000C01A5241C30A8B4201D3CB02C01A52416A
:10018000830A8B4201D38B02C01A5241430A8B422D
:1001900001D34B02C01A5241030A8B4201D30B0216
:1001A000C01A5241CDD2C3098B4201D3CB01C01A30
:1001B000524183098B4201D38B01C01A524143093A
:1001C0008B4201D34B01C01A524103098B4201D328
:1001D0000B01C01A5241C3088B4201D3CB00C01A95
:1001E000524183088B4201D38B00C01A524143080D
:1001F0008B4201D34B00C01A5241411A00D2014632
:10020000524110467047FFE701B5002000F006F8A4
:1002100002BDC0460029F7D076E770477047C04658
:100220009E2110B5C905041C00F052FE002803D120
:10023000201C00F0B5FD10BD9E21201CC90500F05A
:100240000FFC00F0ADFD80231B069C466044F2E7E6
:10025000F8B54746CE464A0243024500C40F500A4D
:10026000804648005B0A000E9209944680B51E0045
:10027000814602002D0EDF00C90F8C4224D0281ABF
:1002800000280EDD002A3ED16246002A00D1FDE0A2
:10029000421E012800D137E1FF2800D1A9E010005B
:1002A00039E0002863D04B46521B002D00D0E0E01F
:1002B000002F00D1CEE0531E012A00D155E1FF2AC4
:1002C00000D194E01A00D9E02A1A002A00DC99E053
:1002D000002862D0FF2D00D18BE080236146DB0433
:1002E00019438C461B2A00DCD2E00123DB195A019A
:1002F0006AD50135FF2D5BD00122A3491A405B0866
:100300000B4013431CE0FF2D00D172E080236246B6
:10031000DB041A4394461B2800DC90E00123FB1AFF
:100320005A0151D59B019E09300000F0DBFD3300DE
:1003300005388340854200DC75E0944A2D1A13404D
:100340005A0704D00F221A40042A00D004335A015D
:100350003CD5681CFE2D2BD09B015E0AC0B2C005A7
:100360003043E4072043C0BCB946B046F8BDFE2088
:100370006A1C104272D1002D00D0AEE0002F00D1D7
:10038000ECE063460020002BE9D0FB1A5A0100D4B0
:10039000F3E063460C00DB1BD2E7614600295BD02B
:1003A000511E012A00D1A7E0FF2A22D00A0099E7B6
:1003B000FF200026D3E7FE216A1C114273D0FF2ADA
:1003C000F6D0150067447B085A07BBD1DB08FF2D28
:1003D0000FD05B025E0AE8B2C1E76246002A08D08D
:1003E0008022D203134204D04046104201D10C00B7
:1003F0004346002BDCD08026F6031E437602FF2006
:10040000760AACE7002AD6D0421B002D5CD0FF282C
:10041000EED08023DB041F431B2A00DC82E0012393
:100420004D46634463E72022401B0130121A190035
:100430009340C1405A1E934100250B4380E720237F
:1004400061461B1A994062460B00C240591E8B41FF
:10045000134364E70C0043461500B8E76346FE1AF1
:10046000730145D4002E00D05EE700240020002652
:1004700075E7FF2BBBD08023DB041F431B2A47DD1E
:10048000012362460C004D46D31A49E705009EE75A
:1004900061462023D1409B1A62469A4013005A1E9F
:1004A00093410B4322E7002D46D1002F62D06346D3
:1004B0000020002B00D152E73B0063445A0183D552
:1004C000324A013513407FE7002FC4D0531E012A62
:1004D00012D0FF2A8CD01A009EE7002F00D07CE7B4
:1004E0006346002B83D180260024FF20F60336E7E5
:1004F00063460C00DE1B17E73B00634401255A01ED
:1005000000D461E70225F7E663460125FB1A07E7F9
:1005100020239B1A38009F403B00D0405A1E934135
:100520000343AEE720239B1A39009F403B00D14094
:100530005A1E93410B4373E7002F00D158E76246E0
:10054000002A00D155E78022D203134200D150E7A0
:100550004146114200D04CE743464AE76346002B30
:1005600083D00C0046460020F9E663460C00DB1BF6
:100570000135D5E646460020F1E6002B00D023E702
:1005800000240026EBE6C046FFFFFF7DFFFFFFFBD8
:10059000F0B54F464646D6464502C0B547000C1C4E
:1005A0006D0A3F0EC60F002F00D16FE0FF2F00D164
:1005B00074E00023802299469A46ED00D204154348
:1005C0007F3F63025B0A984663001B0EE40F002B1B
:1005D0004DD0FF2B45D042468021D200C9041143A3
:1005E000884600227F3B3100FF1A4B466140C9B26A
:1005F0000F2B00D9B8E070489B00C3589F460023DA
:1006000098462600454692465346022B00D18DE07F
:10061000032B00D1A1E0012B18D03B007F33002B2E
:100620006DDD6A0704D00F222A40042A00D0043569
:100630002A0103D5614B1D403B008033FE2B00DDBA
:1006400074E0AA01520AD8B202E00E000020002293
:10065000C005F60710433043E0BCBA46B146A84691
:10066000F0BD4346002B3FD10222FF3F03E043464B
:10067000002B2DD1012231004B466140C9B21343FA
:100680000F2B38D84E489B00C3589F46002D13D1DE
:1006900004239946033B00279A4692E7002D05D193
:1006A00008239946063BFF279A468AE70C2399467A
:1006B000093BFF279A4684E7280000F013FC7627C1
:1006C000431F9D4000237F4299469A463F1A78E790
:1006D000404600F007FC4246431F9A4076235B42A7
:1006E00090461B1A00227EE703234A461A4391468E
:1006F000FC33032277E70E00FF200022A8E7012247
:10070000D31A1B2BA2DC9E372A00BD40DA406B1E99
:100710009D4115436A0704D00F222A40042A00D0C5
:1007200004356A0144D50120002291E7FF20002210
:100730008EE780220026FF20D20389E70023984617
:100740008022D203154208D04346134205D11A43F2
:1007500052022600FF20520A7AE78022D2032A435F
:100760005202FF20520A73E742466B015501AB4229
:100770001AD21B200022013F01261C0052005B0000
:10078000002C01DB9D4201D85B1B3243013800285D
:10079000F3D1581E834113431D003B007F330E00ED
:1007A000002B00DD3DE7AAE71A2001225B1BE3E7EF
:1007B000AA010020520A4BE7A8370008FFFFFFF705
:1007C000E837000843025B0AF0B54F4646469946B3
:1007D000D646C30F45009846C0B54B460F1C2D0E9C
:1007E00000D1CBE0FF2D00D1CFE08022DB00D2048E
:1007F0001A430023914600269A467F3D7C027B00E7
:10080000640A1B0EFF0F002B00D1A9E0FF2B11D0B3
:100810008022E400D204144342467F3B5B197A40B5
:100820000020D2B25D1C0A2E13DD3A000B2E47D0F9
:1008300047463FE02B00FF33002C1ED10222164317
:10084000424601357A40D2B2FF350A2E00DDE4E09F
:100850000220022E1CDC013E012E42D802283DD08F
:10086000012866D100200021C0050843D2071043AB
:10087000E0BCBA46B146A846F0BD03221643424644
:1008800001357A40D2B2FF350A2E00DDE4E00320C4
:100890000121B140A626F60031420AD19026B600C9
:1008A000314216D1B93EFF3E0E421AD0A1468246D1
:1008B00000E0170053463A00022B0FD04C4650463A
:1008C0000328CDD18021C90321434902FF20490AD1
:1008D000CAE780210022FF20C903C5E7FF200021CD
:1008E000C2E7200C49462404240C27000E0C0904FE
:1008F000090C74434F4346434843390C0019091807
:100900008C4203D980204002844666443F04080498
:100910003F0CC0198401671EBC41090C800E891967
:10092000044389010C43090171D5012361081C406E
:100930000C432B007F33002B51DD610704D00F21C6
:100940002140042900D00434210103D5434B1C402D
:100950002B008033FE2BC1DCA101490AD8B283E70A
:10096000002C2CD1012342461E432B007A4001204B
:10097000D2B25D1C0A2E00DD57E76AE7002B10D1CA
:100980000123042600259A4638E7002B04D10223D0
:100990000826FF259A4631E703230C26FF259A46B1
:1009A0002CE7484600F09EFA4A46431F76259A40B7
:1009B00000236D42914600269A462D1A1EE720001C
:1009C00000F090FA4246431F9C402B1A763B7A4037
:1009D0000020D2B25D1C0A2E00DD26E739E7012196
:1009E000CB1A1B2B00DD3DE79E352100AC40D940E2
:1009F000631E9C4121434B0704D00F230B40042B63
:100A000000D004314B0104D5012000212CE71D004A
:100A10008FE789010020490A26E702230F2E0CD117
:100A200080214B46C9030B420DD00C420BD1214310
:100A300049023A00FF20490A16E70B2E00D0F7E6DC
:100A4000A1469A4636E780214B46C903194349021D
:100A50004246FF20490A07E70323DFE7FFFFFFF7CE
:100A6000F0B5C64643025B0A4500DA00C40F4802EF
:100A70004F009446420A1E00904600B52D0E3F0ED0
:100A8000C90F8009FF2F59D0012251408C4239D023
:100A9000EA1B002A58DD002F68D0FF2D00D1D1E0DD
:100AA0008023DB0418431B2A00DCE3E001236246B9
:100AB000D31A5A0100D4ACE09B019E09300000F02B
:100AC00011FA330005388340854200DCC6E0B24AA3
:100AD0002D1A13405A0704D00F221A40042A00D0BE
:100AE00004335A0100D497E06A1CFE2D00D184E043
:100AF0009B015E0AD2B2D0053043E407204380BC9C
:100B0000B846F0BDEA1B002A41DD002F6BD0FF2D57
:100B100000D197E08023DB0418431B2A00DCCCE0E3
:100B2000012363445A0174D50135FF2D65D001229C
:100B30009A491A405B080B401343CBE700281FD0AB
:100B40008C4222D02A00FF3A002A35D07A1B002D91
:100B500000D099E06346002B00D1DDE0531E012A4E
:100B600000D105E1FF2A6BD01A0094E0002873D071
:100B7000511E012A00D1DFE0FF2A63D00A0092E76C
:100B800001225140A14200D082E72A00FF3A002A08
:100B900036D07A1B002D00D1AAE0FF2F00D1DAE079
:100BA00080236146DB0419438C461B2A00DCD4E019
:100BB00001233D001B18B5E7FE276A1C174271D1BF
:100BC000002D00D09EE06346002B00D1D5E000222E
:100BD000002800D18FE71B1A5E0100D4D6E06346DF
:100BE0000C00C31A76E7002836D0511E012A00D126
:100BF0009AE0FF2A26D00A008FE7FF2200267AE734
:100C0000FE276A1C174262D0FF2AF6D01500604406
:100C100043085A0700D05FE7DB08FF2D12D05B02C4
:100C20005E0AEAB267E76246002A00D193E0002834
:100C300008D08022D203134204D04046104201D192
:100C40000C004346002BD8D08026F6031E437602C4
:100C5000FF22760A4FE743461500DEE72022401BBD
:100C60000130121A19009340C1405A1E93410025C9
:100C70000B432FE720239B1A010098400300D1402B
:100C80005A1E93410B4312E7FF2FD9D080236446AD
:100C9000DB041C43A4461B2A52DD01230C003D004B
:100CA000C31A06E763461E1A730139D4002E00D01A
:100CB00004E70024002200261DE720239B1A0100E0
:100CC00098400300D1405A1E93410B4329E7002D61
:100CD000A9D16346002B56D00022002800D10AE794
:100CE000030063445A0194D52B4A0135134090E721
:100CF0006346002BAFD0531E012A15D0FF2A2AD0FD
:100D00001A0052E76246002A91D1002898D1802625
:100D10000024FF22F603EEE60C00434615007CE7B4
:100D200063460C00C61AC9E60300634401255A0154
:100D300000D46EE70225FAE6634601251B1AB8E6E1
:100D400064462023D4409B1A62469A4013005A1EE0
:100D500093412343A2E7434674E761462023D140F1
:100D60009B1A62469A4013005A1E93410B4320E798
:100D700063460C000125C31A9BE6002899D00C009D
:100D800046460022B7E646460022B4E6002B00D0D5
:100D90003FE700240026AEE6FFFFFFFBFFFFFF7DDD
:100DA00041024200C30F490A0020120E7E2A03DDD1
:100DB0009D2A02DD094A98187047802000040143EB
:100DC000952A07DC9620821AD1404842002BF3D1A5
:100DD0000800F1E7963A9140F7E7C046FFFFFF7F32
:100DE00070B5041E0ED000F07DF89E2301001B1A82
:100DF000962B0CDC08282CD008398C406402640A3D
:100E0000D8B201E000200024C005204370BD992B1A
:100E10000ADD020020001B3290400200501E824179
:100E20000520401AC4401443052916DC22000F484F
:100E30000240650709D00F252C40042C05D0043250
:100E4000540102D59F2302405B1A9201540AD8B282
:100E5000DAE764029620640AD6E74A1F944022002B
:100E6000024802406507F0D0E5E7C046FFFFFFFB00
:100E7000844608006146FFE71FB500F0BDF8002872
:100E800001D40021C8421FBD10B500F049F840420E
:100E9000013010BD10B500F0AFF8002801DB0020D4
:100EA00010BD012010BDC04610B500F0A5F8002807
:100EB00001DD002010BD012010BDC04610B500F0BE
:100EC00055F8002801DC002010BD012010BDC046EF
:100ED00010B500F04BF8002801DA002010BD012009
:100EE00010BDC0461C2101231B04984201D3000CF5
:100EF00010391B0A984201D3000A08391B0998428D
:100F000001D30009043902A2105C40187047C046A2
:100F100004030202010101010000000000000000C2
:100F200070B5420045024E024C00C30F6D0A01200D
:100F3000120E760A240EC90FFF2A06D0FF2C03D00A
:100F4000A24201D1B54206D070BD002DFCD1FF2CCC
:100F5000FAD1002EF8D18B4206D00120002AF3D11D
:100F60002800431E9841EFE70020EDE770B54200EE
:100F700045024E024C00C30F6D0A120E760A240E73
:100F8000C80FFF2A1BD0FF2C0ED0002A1BD1002C2B
:100F900001D1002E1CD0002D0CD083421CD0022188
:100FA000581E0840013870BD002E22D1002AF4D10D
:100FB000002DF2D10028F6D101204042F3E7002DA8
:100FC00017D1FF2CF0D0002CE7D1002EE5D1E6E7B9
:100FD0000020002DE7D0E2E7A24205DCEADBB542C3
:100FE00002D8E7D30020DEE74342584140000138F1
:100FF000D9E702204042D6E770B5420045024E02D2
:101000004C00C30F6D0A120E760A240EC80FFF2A79
:101010000BD0FF2C0DD0002A1FD1002C16D1002E92
:1010200014D10020002D10D009E0002D0CD1FF2C90
:1010300013D1002E08D1002A08D0834212D00221F9
:10104000581E0840013800E0022070BD002DF4D188
:101050000028FAD101204042F7E7002CEDD1002E04
:10106000EBD1ECE7A24205DCF2DBB54202D8EFD3CC
:101070000020EAE74342584140000138E5E7C04616
:1010800080B582B000AF0200FB1D1A70FB1D1B78FB
:101090007F2B09D8FB1D1B781A001F231A40044B15
:1010A000012191400A001A60C046BD4602B080BDD1
:1010B00000E100E090B583B000AF02003960FB1D95
:1010C0001A70FB1D1B787F2B28D82F4AFB1D1B781D
:1010D0005BB29B08C0339B009B58FA1D127811002D
:1010E00003220A40D200FF2191400A00D2431A4055
:1010F00011003B689B01FF221A40FB1D1B78180062
:1011000003230340DB009A401F48FB1D1B785BB2A2
:101110009B080A43C0339B001A5031E01B4AFB1D59
:101120001B7819000F230B40083B9B0806339B00DC
:10113000D31804331B68FA1D1278110003220A40E9
:10114000D200FF2191400A00D2431A4011003B68AF
:101150009B01FF221A40FB1D1B781800032303404C
:10116000DB009A400948FB1D1B781C000F2323401D
:10117000083B9B080A4306339B00C31804331A60DC
:10118000C046BD4603B090BD00E100E000ED00E0C8
:1011900080B584B000AF7860074B5969064B7A6818
:1011A0000A435A61044B5B697A681340FB60FB6831
:1011B000C046BD4604B080BD0010024090B583B06B
:1011C00000AF786039600F4A3B68FF210B40023363
:1011D0009B009B583A68120C0F2191400A00D243A1
:1011E0001A4011003B681B0C7A689A4005483B681E
:1011F000FF2423400A4302339B001A50C046BD46D9
:1012000003B090BD0000014080B584B000AFF8602D
:10121000B9607A60FB681968BB685B431A00130009
:101220005B009B18DB430B401A00BB685B4379688B
:101230004B431A43FB681A60C046BD4604B080BDEC
:1012400080B584B000AFF860B9607A60FB68D96897
:10125000BB685B431A0013005B009B18DB430B4029
:101260001A00BB685B4379684B431A43FB68DA603A
:10127000C046BD4604B080BD80B582B000AF786086
:1012800039607B683A689A62C046BD4602B080BD4C
:1012900090B589B000AF18243B19180008231A0034
:1012A000002102F049FA3B00180018231A0000211F
:1012B00002F042FA8023DB031800FFF769FF802366
:1012C0009B021800FFF764FF8023DB021800FFF782
:1012D0005FFF704B01211800FFF7CEFF6D4B02211D
:1012E0001800FFF7C9FF9023DB0501211800FFF765
:1012F000C3FF9023DB0504211800FFF7BDFF9023F7
:10130000DB0540211800FFF7B7FF634B02211800EF
:10131000FFF7B2FF3B0001221A603B0001225A6036
:101320003B0000229A603B000022DA603B00002272
:101330001A613B00574A1900100002F093F93B0074
:1013400002221A603B0001225A603B0000229A6090
:101350003B000022DA603B0000221A613B004D4A4C
:101360001900100002F07EF93B0001221A603B00D8
:1013700001225A603B0000229A603B000022DA60A2
:101380003B0000221A613A009023DB05110018008F
:1013900002F068F93B0004221A603B0001225A6007
:1013A0003B0000229A603B000022DA603B000022F2
:1013B0001A613A009023DB051100180002F052F97F
:1013C0003B0008221A603B0000225A603B000122C9
:1013D0001A613A009023DB051100180002F042F96F
:1013E0003B0040221A603B0001225A603B00002271
:1013F0009A603B000022DA603B0000221A613A004A
:101400009023DB051100180002F02CF93B000222AA
:101410001A603B0001225A603B0000229A603B00A8
:101420000022DA603B0000221A613B001A4A1900D0
:10143000100002F017F9194B19000020FFF7BEFE4B
:101440009023DB05002280211800FFF7F9FE90238E
:10145000DB05002280211800FFF7D6FE21007B1853
:1014600080221A607B1801221A717B1800225A719F
:101470007B1801229A717B18180001F0B3FF00213C
:101480000720FFF717FE0720FFF7FAFDC046BD460D
:1014900009B090BD001400480004004801000C0091
:1014A00080B500AF044B1A68034B01210A431A6050
:1014B000C046BD4680BDC0460010024080B500AFAA
:1014C000054B1B6802221340023B5A425341DBB2D8
:1014D0001800BD4680BDC0460010024080B582B0F5
:1014E00000AF7860064B1B68F822934319007B68B5
:1014F000DA00034B0A431A60C046BD4602B080BD05
:101500000010024080B582B000AF7860064B5B6887
:10151000032293431900044B7A680A435A60C04679
:10152000BD4602B080BDC0460010024080B500AF8D
:10153000034B5B680C2213401800BD4680BDC046BB
:101540000010024080B582B000AF7860064B5B6847
:10155000F02293431900044B7A680A435A60C0464C
:10156000BD4602B080BDC0460010024080B582B0CA
:1015700000AF7860064B5B68064A13401900044BC5
:101580007A680A435A60C046BD4602B080BDC04674
:1015900000100240FFF8FFFF80B582B000AF786016
:1015A000094B1B6B7A68120E032191400A00D2434B
:1015B0001A4011007B681B021A0A034B0A431A6384
:1015C000C046BD4602B080BD0010024080B500AFED
:1015D000044B1A68034B802149040A431A60C04631
:1015E000BD4680BD0010024080B500AF074B1A68B1
:1015F00080239B041340FE221206944663445A4201
:101600005341DBB21800BD4680BDC0460010024009
:1016100080B582B000AF786039600E4B5B680E4ACF
:10162000134019007A6880235B021A403B681A4312
:10163000084B0A435A60074BDB6A0F229343190099
:101640007B680F221A40034B0A43DA62C046BD464C
:1016500002B080BD00100240FFFFC2FF80B582B023
:1016600000AF7860064B1B68012293431900044BBE
:101670007A680A431A60C046BD4602B080BDC046C3
:101680000020024080B500AF034B1B6801221340CD
:101690001800BD4680BDC0460020024090B589B00C
:1016A00000AF78600A00BB1C1A800C243B1918009C
:1016B00014231A00002102F03FF8BB1C1A883B19C2
:1016C0001A603B1901225A603B190022DA603A196C
:1016D0007B681100180000F0C9FDC046BD4609B086
:1016E00090BD90B589B000AF78600A00BB1C1A802D
:1016F0000C243B19180014231A00002102F01CF8D6
:10170000BB1C1A883B191A603B1900225A603B190E
:1017100001229A603A197B681100180000F0A6FDBA
:10172000C046BD4609B090BD80B582B000AF020092
:10173000BB1D1A80084B1B6800225A62C046064B2C
:101740001B685A6ABB1D1B889A42F8D3C046C04624
:10175000BD4602B080BDC0465400002080B582B0B6
:1017600000AFFB1D00221A709023DB050421180036
:10177000FFF794FF9023DB0500220421180000F0FE
:1017800002FFF0235B001800FFF7CEFF9023DB057C
:1017900004211800FFF7A5FF5020FFF7C5FF902395
:1017A000DB050421180000F0D1FE031E03D1FB1D50
:1017B00001221A7002E0FB1DFF221A70C8235B0091
:1017C0001800FFF7B1FFFB1D1B781800BD4602B0E3
:1017D00080BD80B584B000AF0200FB1D1A7090235D
:1017E000DB0504211800FFF759FF0023FB603AE0F6
:1017F000FB1D1A78FB681A4113000122134019D00F
:101800009023DB0504211800FFF748FF9023DB0538
:1018100000220421180000F0B6FE0120FFF784FF2B
:101820009023DB0504211800FFF75BFF3220FFF750
:101830007BFF15E09023DB0504211800FFF72EFF46
:101840009023DB0500220421180000F09CFE3220CA
:10185000FFF76AFF9023DB0504211800FFF741FF23
:10186000FB680133FB60FB68072BC1DDC046C04647
:10187000BD4604B080BD80B582B000AFFB1D002224
:101880001A709023DB0504211800FFF72AFF0023BC
:101890003B6032E09023DB0504211800FFF7FEFED9
:1018A0009023DB0500220421180000F06CFE0120CB
:1018B000FFF73AFF9023DB0504211800FFF711FF23
:1018C0000F20FFF731FF9023DB050421180000F003
:1018D0003DFE031E0BD001223B689A4013005AB212
:1018E000FB1D1B785BB213435AB2FB1D1A703220EA
:1018F000FFF71AFF3B6801333B603B68072BC9DDEC
:10190000FB1D1B781800BD4602B080BD90B585B0A8
:1019100000AFF860B9607A603B60B968F868FFF7BB
:101920009FF8031C1C1C3968386AFFF799F8031CE0
:10193000191C201CFEF746FF031C1C1CB9687868A4
:10194000FFF78EF8031C191C201CFEF721FE031C58
:101950003968181CFEF77CFC031C181CBD4605B03A
:1019600090BD0000B0B582B002AF00F03DFB00F0CA
:1019700019F9FFF78DFC00F08FFA00F0FFF900F085
:1019800025FA00F08BFB0200754B1A609023DB05F3
:1019900000224021180000F0F6FD724B180000F004
:1019A000D5FE714B1A68FA239B009A4200D2AEE032
:1019B0006E4B1B78042B00D9A2E09A006C4BD31815
:1019C0001B689F46FFF7CAFE03001A00694B1A7096
:1019D000694B01221A60694B00221A60634B012295
:1019E0001A7094E0654B1A68634B1B689A4200D2E8
:1019F00088E0CC20FFF7EDFE4420FFF7EAFE5E4BC7
:101A0000C82292001A605D4B00221A60574B0222D6
:101A10001A7077E0594B1A68574B1B689A4273D378
:101A2000FFF79CFE03001A00524B1A70524B012222
:101A30001A60524B00221A604C4B03221A7063E06A
:101A40004E4B1A684C4B1B689A425FD3CC20FFF771
:101A5000C0FEBE20FFF7BDFEFFF70DFF03001A001A
:101A6000474B1A70FFF707FF03001A00454B1A7027
:101A7000444B1B781B021AB2414B1B781BB2134319
:101A80001BB29AB2404B1A803F4B1B881800FFF7DD
:101A9000A7F9031C8321C905181CFEF779FD031C57
:101AA0001A1C3A4B1A60344B00221A60334B002246
:101AB0001A602D4B00221A602C4B04221A7025E06C
:101AC000324B1C68324B1D68314B1B683149181C66
:101AD000FEF7BEFB031C191C00222F4B0093131CA6
:101AE0000A1C291C201CFFF711FF031C181CFEF701
:101AF00097FB0200294B1A601C4B00221A7006E06B
:101B0000C04604E0C04602E0C04600E0C04600F027
:101B1000C5FA0200124B1B68D31A012B00D840E70C
:101B200000F0BCFA02000E4B1B68D21A1C4B1A6064
:101B30000D4B1A681A4B1B68D2180B4B1A600F4BCF
:101B40001A68174B1B68D2180C4B1A60144B0022F2
:101B50001A6000F0A3FA0200014B1A6021E7C046A8
:101B600040000020540000204C00002050000020C5
:101B70002838000838000020040000204800002019
:101B8000390000203A0000203C00002034000020F2
:101B9000000000200000204100E02B46080000204B
:101BA0004400002080B500AF0120FFF757FDC0467C
:101BB000FFF768FD0300012BFAD1FFF771FCC04667
:101BC000FFF77CFC0300012BFAD11020FFF786FC05
:101BD000A0239B0319000020FFF71AFDFFF7F6FC76
:101BE000C046FFF701FD0300012BFAD10020FFF7EB
:101BF000A9FC0020FFF7BAFC0220FFF783FCC046D7
:101C0000FFF794FC0300082BFAD1084B180001F0F1
:101C100085FD032000F0FCF9031E01D000F02CF834
:101C20000020FFF7B9FCC046BD4680BD006CDC0259
:101C300080B582B000AF78607B681A680C4B1B6877
:101C40009A4210D10A4B180000F0BEFD9023DB052C
:101C500001224021180000F096FC064B01220221CF
:101C6000180000F090FCC046BD4602B080BDC046E2
:101C70009C0000200004004880B500AF72B6C0464A
:101C8000FEE7000080B582B000AF0F4B9A690E4BA3
:101C900001210A439A610C4B9B69012213407B602E
:101CA0007B68094BDA69084B802149050A43DA61F0
:101CB000054BDA6980235B0513403B603B68C046F7
:101CC000BD4602B080BDC0460010024080B582B063
:101CD00000AF7860064B5B697A6813407A68D31A64
:101CE0005A425341DBB21800BD4602B080BDC04627
:101CF0000004014080B582B000AF7860034B7A6881
:101D00005A61C046BD4602B080BDC04600040140D5
:101D100080B500AFFEE780B500AFFEE780B500AF4D
:101D2000C046BD4680BD80B500AFC046BD4680BD43
:101D300080B500AF00F0A0F9C046BD4680BD80B5BB
:101D400000AF8020FFF7C2FF031E02D08020FFF704
:101D5000D1FFC046BD4680BD80B500AF034B180023
:101D600000F060FDC046BD4680BDC0469C0000201E
:101D700080B500AFC046BD4680BD000080B500AF55
:101D80000F4B104A1A600E4B2F225A600C4B002248
:101D90009A600B4B0C4ADA60094B00221A61084B1F
:101DA00000225A61064B00229A61054B180000F090
:101DB0007DFC031E01D0FFF75FFFC046BD4680BD1E
:101DC0005400002000440140FFFF000080B500AF38
:101DD0000F4B104A1A600E4B2F225A600C4B0022F8
:101DE0009A600B4B0C4ADA60094B00221A61084BCF
:101DF00000225A61064B00229A61054B180000F040
:101E000055FC031E01D0FFF737FFC046BD4680BD1D
:101E10009C00002000480140FFFF000080B584B016
:101E200000AF78607B681B68184A93420ED1184B4C
:101E30009A69174B802189020A439A61144B9A6967
:101E400080239B021340FB60FB681AE07B681B68E1
:101E5000104A934215D10E4B9A690D4B8021C9024D
:101E60000A439A610A4B9A698023DB021340BB60E4
:101E7000BB6800220021162000F0C6F9162000F0F1
:101E8000D8F9C046BD4604B080BDC04600440140FC
:101E9000001002400048014080B500AF144B154AC5
:101EA0001A60134BE12252025A60114B00229A60D1
:101EB0000F4B0022DA600E4B00221A610C4B0C22F1
:101EC0005A610B4B00229A61094B0022DA61084BE0
:101ED00000221A62064B00225A62054B180000F0DD
:101EE00053FE031E01D0FFF7C7FEC046BD4680BDAE
:101EF000E40000200038014090B58BB000AF78605E
:101F000014243B19180014231A00002101F014FCBA
:101F10007B681B681D4A934233D11D4B9A691C4B49
:101F20008021C9010A439A61194B9A698023DB0118
:101F300013403B613B69164B5A69154B802189025E
:101F40000A435A61124B5A6980239B021340FB607B
:101F5000FB683B19C022D2001A6021007B180222C4
:101F60005A607B1800229A607B180322DA607B1883
:101F700001221A617A189023DB051100180000F085
:101F800075F9C046BD460BB090BDC0460038014053
:101F9000001002400D488546FFF7EAFE0C480D4947
:101FA0000D4A002302E0D458C4500433C4188C42B4
:101FB000F9D30A4A0A4C002301E013600432A2421A
:101FC000FBD301F0C1FBFFF7CDFCFEE700100020C2
:101FD00000000020180000206C38000818000020C5
:101FE00070010020FEE7000080B500AF074B1A68C3
:101FF000064B10210A431A60032000F009F8FFF78E
:1020000041FE00231800BD4680BDC04600200240AE
:1020100090B583B000AF7860144B1C68144B1B78EC
:102020001900FA239800FEF76FF80300190020004A
:10203000FEF76AF80300180000F00BF9031E01D048
:1020400001230FE07B68032B0BD8796801235B42E7
:102050000022180000F0D8F8064B7A681A600023B6
:1020600000E001231800BD4603B090BD0C00002025
:10207000140000201000002080B500AF054B1B7835
:102080001A00054B1B68D218034B1A60C046BD46A8
:1020900080BDC046140000206C01002080B500AF58
:1020A000024B1B681800BD4680BDC0466C01002075
:1020B00080B582B000AF0200FB1D1A70FB1D1B78BB
:1020C0007F2B09D8FB1D1B781A001F231A40044BD5
:1020D000012191400A001A60C046BD4602B080BD91
:1020E00000E100E090B583B000AF02003960FB1D55
:1020F0001A70FB1D1B787F2B28D82F4AFB1D1B78DD
:102100005BB29B08C0339B009B58FA1D12781100EC
:1021100003220A40D200FF2191400A00D2431A4014
:1021200011003B689B01FF221A40FB1D1B78180021
:1021300003230340DB009A401F48FB1D1B785BB262
:102140009B080A43C0339B001A5031E01B4AFB1D19
:102150001B7819000F230B40083B9B0806339B009C
:10216000D31804331B68FA1D1278110003220A40A9
:10217000D200FF2191400A00D2431A4011003B686F
:102180009B01FF221A40FB1D1B781800032303400C
:10219000DB009A400948FB1D1B781C000F232340DD
:1021A000083B9B080A4306339B00C31804331A609C
:1021B000C046BD4603B090BD00E100E000ED00E088
:1021C00080B582B000AF78607B685A1E80235B04C4
:1021D0009A4201D3012310E00A4B7A68013A5A600F
:1021E00001235B4203211800FFF77CFF054B00220F
:1021F0009A60044B07221A6000231800BD4602B003
:1022000080BDC04610E000E080B584B000AFB9608A
:102210007A600F217B18021C1A70BA687B181B7831
:102220005BB211001800FFF75DFFC046BD4604B069
:1022300080BD80B582B000AF0200FB1D1A70FB1D8F
:102240001B785BB21800FFF733FFC046BD4602B0F3
:1022500080BD80B582B000AF78607B681800FFF762
:10226000AFFF03001800BD4602B080BD80B586B048
:1022700000AF7860396000237B614FE13B681B68E9
:1022800001217A6991400A001340FB60FB68002B32
:1022900000D140E13B685B6803221340012B05D06D
:1022A0003B685B6803221340022B30D17B689B683C
:1022B0003B617B695B0003229A401300DA433B6970
:1022C00013403B613B68DA687B695B009A4013000E
:1022D0003A6913433B617B683A699A607B685B6843
:1022E0003B6101227B699A401300DA433B6913404A
:1022F0003B613B685B681B0901221A407B699A407D
:1023000013003A6913433B617B683A695A603B6842
:102310005B6803221340032B17D07B68DB683B61AB
:102320007B695B0003229A401300DA433B69134048
:102330003B613B689A687B695B009A4013003A698D
:1023400013433B617B683A69DA603B685B68032250
:102350001340022B23D17B69DA087B680832920094
:10236000D3583B617B69072213409B000F229A40A0
:102370001300DA433B6913403B613B681A697B6990
:1023800007210B409B009A4013003A6913433B61BD
:102390007B69DA087B68083292003969D1507B6822
:1023A0001B683B617B695B0003229A401300DA43A0
:1023B0003B6913403B613B685B6803221A407B69C1
:1023C0005B009A4013003A6913433B617B683A69AA
:1023D0001A603B685A68C0239B02134000D19AE000
:1023E000544B9A69534B01210A439A61514B9B69A3
:1023F00001221340BB60BB684F4A7B699B080233D4
:102400009B009B583B617B69032213409B000F227A
:102410009A401300DA433B6913403B617A6890238A
:10242000DB059A4213D07B68444A93420DD07B6807
:10243000434A934207D07B68424A934201D1032327
:1024400006E0052304E0022302E0012300E000236C
:102450007A6903210A40920093403A6913433B6131
:1024600035497B699B0802339B003A695A50364BC9
:102470009B683B61FB68DA433B6913403B613B6807
:102480005A6880235B03134003D03A69FB68134307
:102490003B612D4B3A699A602B4BDB683B61FB68D3
:1024A000DA433B6913403B613B685A6880239B03D6
:1024B000134003D03A69FB6813433B61224B3A69EE
:1024C000DA60214B5B683B61FB68DA433B69134090
:1024D0003B613B685A6880239B02134003D03A69F2
:1024E000FB6813433B61184B3A695A60164B1B68F3
:1024F0003B61FB68DA433B6913403B613B685A68C8
:1025000080235B02134003D03A69FB6813433B61AD
:102510000D4B3A691A607B6901337B613B681A682D
:102520007B69DA40131E00D0A8E6C046C046BD460F
:1025300006B080BD001002400000014000040048C9
:1025400000080048000C00480004014080B584B039
:1025500000AF78600A00BB1C1A807B681B69BA1C3C
:102560001288134004D00F23FB1801221A7003E0D5
:102570000F23FB1800221A700F23FB181B7818007A
:10258000BD4604B080BD80B582B000AF7860080061
:102590001100BB1C021C1A807B1C0A1C1A707B1CBD
:1025A0001B78002B04D0BB1C1A887B689A6103E05F
:1025B000BB1C1A887B689A62C046BD4602B080BDCB
:1025C00080B586B000AF0023FB600023BB60002312
:1025D0007B6100237B6000233B61204B5B68FB60D9
:1025E000FB680C221340042B02D0082B03D02CE0F4
:1025F0001B4B3B612CE0FB689B0C0F221340194ADC
:10260000D35C7B60154BDB6A0F221340164AD35C08
:10261000BB60FA6880235B02134009D0B968104898
:10262000FDF772FD03001A007B6853437B6109E0EC
:1026300079680A005201521A93019B1ADB005B1859
:102640001B027B617B693B6102E0054B3B61C0463D
:102650003B691800BD4606B080BDC0460010024070
:1026600000127A00443800085438000880B500AFE2
:10267000024B1B681800BD4680BDC0460C00002000
:1026800080B500AFFFF7F2FF0100064B5B681B0A45
:1026900007221340044AD35CD9400B001800BD4602
:1026A00080BDC046001002403C38000880B582B0B2
:1026B00000AF78607B68002B01D1012342E07B688A
:1026C0003D229B5CDBB2002B07D17B683C220021C2
:1026D00099547B681800FFF7A1FB7B683D2202211B
:1026E00099547B681A687B6804331900100000F065
:1026F000CFF97B684622012199547B683E22012153
:1027000099547B683F22012199547B684022012122
:1027100099547B684122012199547B68422201210E
:1027200099547B684322012199547B6844220121FA
:1027300099547B684522012199547B683D220121EF
:10274000995400231800BD4602B080BD80B584B006
:1027500000AF78607B683D229B5CDBB2012B01D02F
:10276000012328E07B683D22022199547B681B6885
:10277000134A934204D07B681B68124A934211D1DA
:102780007B681B689B6807221340FB60FB68062B75
:1027900010D07B681B681A687B681B6801210A439C
:1027A0001A6007E07B681B681A687B681B68012158
:1027B0000A431A6000231800BD4604B080BDC0461D
:1027C000002C01400004004080B582B000AF78606A
:1027D0007B681B68DA687B681B6801218A43DA60C2
:1027E0007B681B681B6A0D4A13400DD17B681B6810
:1027F0001B6A0B4A134007D17B681B681A687B6809
:102800001B6801218A431A607B683D22012199548B
:1028100000231800BD4602B080BDC0461111000063
:102820004404000080B582B000AF78607B681B680C
:102830001B6902221340022B24D17B681B68DB68D2
:1028400002221340022B1DD17B681B6803225242D7
:102850001A617B6801221A777B681B689B690322D7
:10286000134004D07B68180000F0FAF807E07B689A
:10287000180000F0EDF87B68180000F0F9F87B68AC
:1028800000221A777B681B681B6904221340042B03
:1028900025D17B681B68DB6804221340042B1ED102
:1028A0007B681B68052252421A617B6802221A77F4
:1028B0007B681B689A69C0239B00134004D07B6827
:1028C000180000F0CDF807E07B68180000F0C0F8B1
:1028D0007B68180000F0CCF87B6800221A777B68D0
:1028E0001B681B6908221340082B24D17B681B68D6
:1028F000DB6808221340082B1DD17B681B68092266
:1029000052421A617B6804221A777B681B68DB6974
:102910000322134004D07B68180000F0A1F807E000
:102920007B68180000F094F87B68180000F0A0F8AD
:102930007B6800221A777B681B681B691022134092
:10294000102B25D17B681B68DB6810221340102BED
:102950001ED17B681B68112252421A617B680822D3
:102960001A777B681B68DA69C0239B00134004D088
:102970007B68180000F074F807E07B68180000F02E
:1029800067F87B68180000F073F87B6800221A77FC
:102990007B681B681B6901221340012B0FD17B68E8
:1029A0001B68DB6801221340012B08D17B681B6880
:1029B000022252421A617B681800FFF739F97B68DE
:1029C0001B681B6980221340802B0FD17B681B681A
:1029D000DB6880221340802B08D17B681B68812232
:1029E00052421A617B68180000F0C6F87B681B68C9
:1029F0001B6940221340402B0FD17B681B68DB68AA
:102A000040221340402B08D17B681B684122524270
:102A10001A617B68180000F033F87B681B681B693B
:102A200020221340202B0FD17B681B68DB682022FB
:102A30001340202B08D17B681B68212252421A6167
:102A40007B68180000F090F8C046BD4602B080BD1B
:102A500080B582B000AF7860C046BD4602B080BD90
:102A600080B582B000AF7860C046BD4602B080BD80
:102A700080B582B000AF7860C046BD4602B080BD70
:102A800080B582B000AF7860C046BD4602B080BD60
:102A900080B584B000AF786039607B681B68FB60EC
:102AA0007B682B4A934203D07B682A4A934208D121
:102AB000FB6870229343FB603B685B68FA681343D2
:102AC000FB607B68224A93420FD07B68214A934285
:102AD0000BD07B68204A934207D07B681F4A934201
:102AE00003D07B681E4A934208D1FB681D4A1340FD
:102AF000FB603B68DB68FA681343FB60FB6880227D
:102B000093431A003B685B691343FB607B68FA6878
:102B10001A603B689A687B68DA623B681A687B686F
:102B20009A627B680A4A934207D07B680B4A9342B9
:102B300003D07B680A4A934203D13B681A697B68D9
:102B40001A637B6801225A61C046BD4604B080BD4D
:102B5000002C0140000400400020004000440140DF
:102B600000480140FFFCFFFF80B582B000AF7860F5
:102B7000C046BD4602B080BD80B582B000AF78606F
:102B8000C046BD4602B080BD80B582B000AF78605F
:102B90007B68002B01D1012344E07B68DB6F002BB5
:102BA00007D17B687822002199547B681800FFF7D1
:102BB000A3F97B682422DA677B681B681A687B6844
:102BC0001B6801218A431A607B68180000F030F806
:102BD0000300012B01D1012324E07B685B6A002BF9
:102BE00003D07B68180000F04BF97B681B685A68BB
:102BF0007B681B680D490A405A607B681B689A68AD
:102C00007B681B6808218A439A607B681B681A6886
:102C10007B681B6801210A431A607B68180000F07A
:102C2000E3F903001800BD4602B080BDFFF7FFFFC7
:102C300080B588B000AF78601E23FB1800221A70A0
:102C40007B689A687B681B691A437B685B691A43D7
:102C50007B68DB6913437B617B681B681B68834A65
:102C6000134019007B681B687A690A431A607B6805
:102C70001B685B687E4A134019007B68DA687B68D2
:102C80001B680A435A607B689B697B617B681B6A8F
:102C90007A6913437B617B681B689B68754A1340A4
:102CA00019007B681B687A690A439A60724B1B6B38
:102CB00003221340032B0DD01BD8022B14D018D89D
:102CC000002B02D0012B0AD013E01F23FB18002297
:102CD0001A7012E01F23FB1802221A700DE01F2346
:102CE000FB1804221A7008E01F23FB1808221A7030
:102CF00003E01F23FB1810221A707B68DA69802317
:102D00001B029A425CD11F23FB181B78082B15D09D
:102D100018DC042B0DD015DC002B02D0022B05D0C3
:102D200010E0FFF7ADFC0300BB6112E0534BBB6149
:102D30000FE0FFF745FC0300BB610AE080231B02A4
:102D4000BB6106E00023BB611E23FB1801221A7041
:102D5000C046BB69002B00D17AE0BB695A007B6892
:102D60005B685B08D2187B685B6819001000FDF790
:102D7000CBF903003B613B690F2B1CD93A698023D7
:102D80005B029A4217D23B699AB20E203B180F2180
:102D90008A431A803B695B089BB20722134099B2B1
:102DA0003B183A1812880A431A807B681B683A1845
:102DB0001288DA604CE01E23FB1801221A7047E0EB
:102DC0001F23FB181B78082B15D018DC042B0DD003
:102DD00015DC002B02D0022B05D010E0FFF750FCD1
:102DE0000300BB6112E0254BBB610FE0FFF7E8FB7E
:102DF0000300BB610AE080231B02BB6106E00023E5
:102E0000BB611E23FB1801221A70C046BB69002B50
:102E10001ED07B685B685A08BB69D2187B685B6808
:102E200019001000FDF770F903003B613B690F2B9F
:102E30000AD93A6980235B029A4205D23B699AB269
:102E40007B681B68DA6003E01E23FB1801221A70FE
:102E50007B6800229A667B680022DA661E23FB18D4
:102E60001B781800BD4608B080BDC046F369FFFF5F
:102E7000FFCFFFFFFFF4FFFF0010024000127A00B7
:102E800080B582B000AF78607B685B6A0122134036
:102E90000BD07B681B685B684A4A134019007B684B
:102EA0009A6A7B681B680A435A607B685B6A0222E5
:102EB00013400BD07B681B685B68434A13401900C2
:102EC0007B68DA6A7B681B680A435A607B685B6AC6
:102ED000042213400BD07B681B685B683B4A13409D
:102EE00019007B681A6B7B681B680A435A607B6811
:102EF0005B6A082213400BD07B681B685B68344A0E
:102F0000134019007B685A6B7B681B680A435A6040
:102F10007B685B6A102213400BD07B681B689B6840
:102F20002C4A134019007B689A6B7B681B680A4324
:102F30009A607B685B6A202213400BD07B681B6819
:102F40009B68254A134019007B68DA6B7B681B6815
:102F50000A439A607B685B6A402213401DD07B68FD
:102F60001B685B681D4A134019007B681A6C7B68FC
:102F70001B680A435A607B681A6C80235B039A4281
:102F80000BD17B681B685B68154A134019007B688E
:102F90005A6C7B681B680A435A607B685B6A8022B4
:102FA00013400BD07B681B685B680E4A1340190006
:102FB0007B689A6C7B681B680A435A60C046BD46B2
:102FC00002B080BDFFFFFDFFFFFFFEFFFFFFFBFF25
:102FD000FF7FFFFFFFEFFFFFFFDFFFFFFFFFEFFFC1
:102FE000FFFF9FFFFFFFF7FF80B592B002AF786051
:102FF0007B68842200219950FFF750F80300FB639F
:103000007B681B681B6808221340082B2CD1FB6BC4
:10301000802291037868464A0092002200F08CF8E2
:10302000031E21D0EFF310837B627B6ABB63012315
:10303000BB62BB6A83F31088C0467B681B681A6852
:103040007B681B6880218A431A60BB6BFB62FB6A4A
:1030500083F31088C0467B682022DA677B68782279
:103060000021995403235FE07B681B681B680422DE
:103070001340042B46D1FB6B8022D10378682C4A85
:103080000092002200F058F8031E3BD0EFF31083AB
:10309000FB60FB687B6301233B613B6983F3108822
:1030A000C0467B681B681A687B681B6821490A4018
:1030B0001A607B6B7B617B6983F31088C046EFF3FA
:1030C0001083BB61BB693B630123FB61FB6983F335
:1030D0001088C0467B681B689A687B681B68012162
:1030E0008A439A603B6B3B623B6A83F31088C0461D
:1030F0007B688022202199507B6878220021995496
:10310000032311E07B682022DA677B68802220217C
:1031100099507B6800221A667B6800225A667B6899
:1031200078220021995400231800BD4610B080BDBC
:10313000FFFFFF01DFFEFFFF80B584B000AFF86046
:10314000B9603B60FB1D1A704BE0BB69013348D08E
:10315000FEF7A4FF02003B68D31ABA699A4202D371
:10316000BB69002B01D103234BE0FB681B681B6884
:103170000422134035D0FB681B68DB69082213402A
:10318000082B11D1FB681B6808221A62FB68180023
:1031900000F03CF8FB68842208219950FB687822F3
:1031A0000021995401232CE0FB681B68DA69802315
:1031B0001B011A4080231B019A4212D1FB681B6835
:1031C000802212011A62FB68180000F01FF8FB68E9
:1031D000842220219950FB687822002199540323EE
:1031E0000FE0FB681B68DB69BA681340BA68D31A42
:1031F0005A425341DBB21A00FB1D1B789A42A4D0FD
:1032000000231800BD4604B080BD000080B58EB01C
:1032100000AF7860EFF310837B617B697B630123F0
:10322000BB61BB6983F31088C0467B681B681A6862
:103230007B681B6826490A401A607B6BFB61FB694F
:1032400083F31088C046EFF310833B623B6A3B6315
:1032500001237B627B6A83F31088C0467B681B680E
:103260009A687B681B6801218A439A603B6BBB624A
:10327000BB6A83F31088C0467B681B6E012B18D194
:10328000EFF31083BB60BB68FB620123FB60FB684C
:1032900083F31088C0467B681B681A687B681B68CC
:1032A00010218A431A60FB6A3B613B6983F31088F3
:1032B000C0467B688022202199507B6800221A66D4
:1032C0007B6800229A66C046BD460EB080BDC046EF
:1032D000DFFEFFFF80B582B000AF7860044B196855
:1032E000034B7A680A431A60C046BD4602B080BDEF
:1032F0000004014080B582B000AF7860054B1A68C9
:103300007B68D943034B0A401A60C046BD4602B0F1
:1033100080BDC0460004014080B582B000AF786037
:10332000044B5968034B7A680A435A60C046BD464D
:1033300002B080BD0004014080B582B000AF78606B
:10334000054B5A687B68D943034B0A405A60C04614
:10335000BD4602B080BDC0460004014080B582B0C9
:1033600000AF7860044B9968034B7A680A439A600F
:10337000C046BD4602B080BD0004014080B582B0A9
:1033800000AF7860054B9A687B68D943034B0A40CD
:103390009A60C046BD4602B080BDC04600040140F0
:1033A00080B582B000AF7860044BD968034B7A686F
:1033B0000A43DA60C046BD4602B080BD0004014049
:1033C00080B582B000AF7860054BDA687B68D9437E
:1033D000034B0A40DA60C046BD4602B080BDC0461D
:1033E0000004014080B584B000AF78600F23FB1863
:1033F00000221A707B681B79002B00D168E07B6883
:103400001B68002B00D16DE07B685B79022B1BD021
:1034100025DC002B02D0012B0BD020E07B681B6841
:103420001800FFF789FF7B681B681800FFF752FF41
:103430001AE07B681B681800FFF75CFF7B681B685D
:103440001800FFF769FF0FE07B681B681800FFF7A3
:1034500041FF7B681B681800FFF75EFF04E00F2345
:10346000FB1801221A70C0467B689B79002B39D06B
:103470007B689B79032B1BD025DC012B02D0022B10
:103480000BD020E07B681B681800FFF799FF7B6872
:103490001B681800FFF762FF24E07B681B681800B8
:1034A000FFF76CFF7B681B681800FFF779FF19E0D6
:1034B0007B681B681800FFF751FF7B681B681800CA
:1034C000FFF76EFF0EE00F23FB1801221A7009E0D0
:1034D0007B681B681800FFF70DFF7B681B681800EE
:1034E000FFF72AFF0F23FB181B781800BD4604B016
:1034F00080BD80B584B000AFF860B9607A60FB68C9
:103500001968BB685B431A0013005B009B18DB4320
:103510000B401A00BB685B4379684B431A43FB6856
:103520001A60C046BD4604B080BD80B584B000AF0F
:10353000F860B9607A60FB685B68BA68D2431A4089
:10354000BB6879684B431A43FB685A60C046BD4666
:1035500004B080BD80B584B000AFF860B9607A6017
:10356000FB689968BB685B431A0013005B009B18FB
:10357000DB430B401A00BB685B4379684B431A433B
:10358000FB689A60C046BD4604B080BD80B584B07B
:1035900000AFF860B9607A60FB68D968BB685B43CC
:1035A0001A0013005B009B18DB430B401A00BB683A
:1035B0005B4379684B431A43FB68DA60C046BD46FB
:1035C00004B080BD80B584B000AFF860B9607A60A7
:1035D000FB68196ABB685B43BA685343BA685A43CD
:1035E00013001B019B1ADB430B401A00BB685B43B3
:1035F000B9684B43B9684B4379684B431A43FB683E
:103600001A62C046BD4604B080BD80B584B000AF2C
:10361000F860B9607A60FB68596ABB681B0ABA68CF
:10362000120A5343BA68120A5343BA68120A5A4339
:1036300013001B019B1ADB430B401A00BB681B0ADB
:10364000B968090A4B43B968090A4B43B968090AC2
:103650004B4379684B431A43FB685A62C046BD46E8
:1036600004B080BD80B584B000AF786039600023BD
:10367000FB6048E03B681B680121FA6891400A0042
:103680001340BB60BB68002B3AD03B685B68012BE2
:1036900003D03B685B68022B0ED13B689A68B9681F
:1036A0007B681800FFF756FF3B6819683B68DA68CB
:1036B0007B681800FFF739FF3B681A69B9687B68B7
:1036C0001800FFF763FF3B685B68022B11D1BB68F2
:1036D000FF2B07D83B685A69B9687B681800FFF769
:1036E00071FF06E03B685A69B9687B681800FFF70C
:1036F0008CFF3B685A68B9687B681800FFF7F9FED1
:10370000FB680133FB603B681A68FB68DA40131EF4
:10371000B0D100231800BD4604B080BD80B582B092
:1037200000AF7860034B7A681A60C046BD4602B0AD
:1037300080BDC0460C00002003008218934200D1D7
:10374000704719700133F9E770B500260C4C0D4D28
:10375000641BA410A64209D1002600F019F80A4CF7
:103760000A4D641BA410A64205D170BDB300EB58EE
:1037700098470136EEE7B300EB5898470136F2E779
:1037800064380008643800086838000864380008A5
:10379000F8B5C046F8BC08BC9E467047F8B5C046B0
:0837A000F8BC08BC9E4670470E
:1037A80068070008F60600084A060008020600082E
:1037B8004A060008320700084A0600080206000800
:1037C800F6060008F6060008320700080206000898
:1037D8000806000808060008080600084007000850
:1037E800F6060008F60600084A060008FE05000866
:1037F8004A060008320700084A060008FE050008C5
:10380800F6060008F606000832070008FE0500085C
:103818000806000808060008080600083C07000813
:10382800C4190008E4190008141A0008401A00080E
:10383800C01A000800000000010203040203040586
:10384800060708090A0B0C0D0E0F101001020304DD
:0C38580005060708090A0B0C0D0E0F10E6
:04386400E90000086F
:04386800C100000893
:10386C000000C841010000008813000000127A001B
:08387C0004000000010000003F
:0400000508001F953B
:00000001FF
